:020000040800F2
:1000000070F700204501000801AB00089983000843
:10001000FFAA0008E511000811F90008000000001F
:1000200000000000000000000000000009EC0008D3
:10003000B31E0008000000003B0900089DB6000840
:100040005F0100085F0100085F0100085F01000810
:100050005F0100085F0100085F0100085F01000800
:100060005F0100085F0100085F0100085F010008F0
:100070005F0100085F0100085F0100085F010008E0
:100080005F0100085F0100085F0100085F010008D0
:100090005F0100085F0100085F0100085F010008C0
:1000A0005F0100085F0100085F0100085F010008B0
:1000B0005F0100085F0100085F0100085F010008A0
:1000C0005F0100085F0100085F0100085F01000890
:1000D0005F0100085F0100085F0100085F01000880
:1000E0005F0100085F0100085F0100085F01000870
:1000F0005F0100085F0100085F0100085F01000860
:100100005F01000801D600085F0100085F010008D8
:100110005F0100085F0100085F0100085F0100083F
:100120005F0100085F0100085F0100088D160008EC
:10013000DFF80CD000F0D8F900480047BDFE0108F8
:1001400070F700200648804706480047FEE7FEE7B4
:10015000FEE7FEE7FEE7FEE7FEE7FEE7FEE7FEE777
:1001600031ED00083101000872B6704762B6704781
:10017000EFF3108072B6704780F31088704730BF7D
:10018000704720BF7047B0FA80F0704790FAA0F037
:10019000B0FA80F0704790FAA0F070472DE9F05F58
:1001A0000546002092469B468846064681464024E6
:1001B0001BE0284641464746224600F06CF953466C
:1001C0005A46C01A914110D311461846224600F0F3
:1001D00053F92D1A67EB01084F46224601200021F2
:1001E00000F04AF917EB00094E41201EA4F101046A
:1001F000DFDC484631462A464346BDE8F09F10B54D
:10020000431A934209D28318881803E010F8011D9D
:1002100003F8011D521EF9D210BD40EA01039B07ED
:1002200003D009E008C9121F08C0042AFAD203E06B
:1002300011F8013B00F8013B521EF9D210BDD2B2B9
:1002400001E000F8012B491EFBD270470022F6E7BF
:1002500010B513460A4604461946FFF7F0FF20463C
:1002600010BD30B505462A460B4612F8010B13F8AF
:10027000014B08B1A042F8D01CB1002802D06D1C7F
:10028000F1E7284630BD421C10F8011B0029FBD1C4
:10029000801A704730B504460020034600E05B1C1E
:1002A000934203D2E05CCD5C401BF8D030BD0346E6
:1002B00011F8012B00F8012B002AF9D118467047DC
:1002C0000246C9B200E0401C0378002BFBD102E0DB
:1002D00003788B4203D0401E9042F9D20020704731
:1002E0000FB400B589B00BA800906A4603480A997C
:1002F00000F0F0F809B05DF814FB00007009002070
:100300002DE9FF5F1D464FF0FF3BD5E901469146C1
:100310005F464FF00008A9697F1C01988847296A49
:10032000824688470028F6D1BAF1FF3F0CD024F46A
:10033000C064002E19DD600614D5BAF12B0F09D068
:10034000BAF12D0F0ED103E0584604B0BDE8F09F7E
:1003500044F48064A9697F1C01988847761E824610
:10036000002E02DDBAF1300F03D0B9F1000F26D014
:1003700032E0A969761E44F400747F1C0198884716
:100380008246002E05DDBAF1780F06D0BAF1580F7B
:1003900003D0B9F1000F10D01EE0B9F1000F02D068
:1003A000B9F1100F18D1A969761E24F400747F1CCE
:1003B000019888478246102002E0082000E00A20C9
:1003C000814609E008FB0908A969761E44F4007417
:1003D0007F1C019888478246002E05DD494650461D
:1003E00000F069F80028EDDAE96901988847A0056E
:1003F00002D46FF00100A8E7E00725D1600613D50D
:10040000600502D5C8F1000000E0404629680A1DD9
:100410002A600968220501D5087015E0220701D578
:10042000088011E008600FE02868011D296000685D
:10043000210502D580F8008006E0210702D5A0F84A
:10044000008001E0C0F8008038467EE730B50B46FA
:10045000014600202022012409E021FA02F59D42F4
:1004600005D303FA02F5491B04FA02F52844151EC8
:10047000A2F10102F1DC30BD202A04DB203A00FAAF
:1004800002F1002070479140C2F1200320FA03F3EB
:10049000194390407047202A04DB203A21FA02F0E9
:1004A0000021704721FA02F3D040C2F120029140AE
:1004B0000843194670473A2800D2303820F020020D
:1004C000412A01D3A2F13700884201D34FF0FF3017
:1004D00070470000024B9361024BD36100F032B8C9
:1004E000B1F4010829050008064C074D06E0E06854
:1004F00040F0010394E8070098471034AC42F6D36B
:10050000FFF71AFE84EB0208A4EB0208094910B5B4
:1005100008784C1C18B1401E0870205C10BD0021EA
:100520000720ABBE207010BD02490878421C0A703B
:1005300070470000780900200268114413780160B8
:1005400018467047D1600449516104491162002185
:100550001161114600F00AB839050008610500086C
:10056000C0B24FF4F05100F097B900002DE9F34FFD
:100570008BB04FF0000801F10C000C464FF0010B5E
:1005800046460DF1080A01906269012101989047E1
:1005900005002DD0252D2CD0216A8847C0B1626975
:1005A000012101989047216A88470028F7D1411E10
:1005B00062690198904700E0761CA1690B98884712
:1005C000216A88470028F7D1E1690B988847DBE763
:1005D000A1690B9888470746A84201D1761CD3E74A
:1005E000E1690B9888477F1C02D1B8F1000F6FD0EA
:1005F00046E1002762693D463946019890472A281E
:1006000004D162690121019890470125DFF88492A5
:100610006269012101989047A0F130010A290AD2AC
:100620004F45E5DC07EB870100EB4107303FDFD4A6
:1006300045F01005ECE7E90601D46FF000476C289F
:100640000AD04C2814D0682815D06A280DD07428F8
:100650001CD07A281AD01DE06269012101989047C8
:100660006C2802D045F0040514E045F002050DE0C9
:1006700045F020050AE06269012101989047682849
:1006800002D045F0080505E045F4006562690121E6
:1006900001989047C4E9015765283DD019DC5828D6
:1006A0007AD00CDC452837D004DC252826D0412818
:1006B00031D131E046282FD047282CD12CE05B28BF
:1006C00077D0612828D063287CD0642823D15AE0D1
:1006D000D0E06F2848D008DC66281DD067281BD0E2
:1006E000692821D06E2816D127E0702845D07328BC
:1006F00068D0752847D078280DD14DE0A1690B98B6
:100700008847054625283FF469AFE1690B9888477B
:100710006D1C3FF46AAFB3E023466A466FF00100F8
:100720000B99AFF300809EE045F040006060A807A1
:1007300023464FF0000236D43EE0E8077FF447AF8F
:100740002068011D21600068290501D506701BE79E
:10075000290701D5068017E7A90703D5F117C0E9D6
:10076000006111E706600FE745F040006060A807F0
:1007700023464FF0080216D41EE040F60E0125EA8B
:100780000100606016E045F040006060A807234665
:100790004FF00A0207D40FE045F040006060A80760
:1007A00008D5234610226FF001000B99AFF30080AB
:1007B00059E007E0234610226FF001000B99FFF784
:1007C0009FFD50E04FF000094F464B46632802D092
:1007D0005B2806D040E0E80601D40120A060012794
:1007E0003AE062690121019890475E2805D14FF0F7
:1007F00001096269494601989047216939B9002188
:100800000A46534643F82120491C0829FADBB0B3B5
:10081000216969B9C11700EBD16253110AEB830159
:1008200022F01F02821A01200B68904003430B60E4
:1008300062690121019890475D28E8D1B9F1000F64
:1008400009D00020514651F82020D24341F8202001
:10085000401C0828F7DB02AB224600976FF001002E
:100860000B99AFF3008000280CDA401C08D1BBF1D3
:10087000000F05D04FF0FF300DB0BDE8F08FFFE75F
:100880004046F9E7E90701D108F1010806444FF0B5
:10089000000B79E6CCCCCC0C7F2801D9002208E0F3
:1008A000064A02EB5002C007127800D1120902F08A
:1008B0000F0201209040084070470000F4E9020850
:1008C00070B58C1810F8015B15F0070301D110F812
:1008D000013B2A1106D110F8012B03E010F8016B3F
:1008E00001F8016B5B1EF9D12B0705D40023521EC2
:1008F0000DD401F8013BFAE710F8013BCB1A921C2A
:1009000003E013F8015B01F8015B521EF9D5A14227
:10091000D8D3002070BD000018484FF0FF010170CF
:10092000002080F309881648016881F3088815487B
:100930004FF08051016062B6FEE772B6EFF30980B6
:1009400028B1203880E8F00F0F490968086000B529
:100950000E4880475DF804EB0D480E490A78027096
:1009600009480D490A680260106890E8F00F2030CD
:1009700080F309884EF0040E62B6704722ED00E065
:100980009000002004ED00E088000020C5B40008BD
:1009900044000020450000208C000020002800DCDE
:1009A000404270477047000070B58AB0002409AD1E
:1009B00003260594CDE907651922134B0694CDE96A
:1009C000013201200102CDE903100C2000902346E2
:1009D0000E4A0FA112480AF0B1FBCDE90646059474
:1009E0004FF480600895CDE9030466210D4ACDE9F6
:1009F00001210D2000900A4800230B4A0BA1B430BE
:100A00000AF09CFB0AB070BD9C0F0020E50A0008AC
:100A1000417070205461736B20557064617465007F
:100A2000340A0020A0130020690B000841707020D8
:100A30005461736B20557365726170700000000023
:100A40000EB500F0A5F800F06DFC00F005F902A865
:100A50000AF01CFB0BA01CF099FAFFF7A5FF15A0EC
:100A60001CF094FAFFF79EFF002502AC05F0A4FFEE
:100A70000022CDE900540F23114610460AF07CFDF8
:100A8000F4E700003C3C2D4F532D494E464F2D3E80
:100A90003E204372656174696E67204170706C69B5
:100AA000636174696F6E205461736B732E2E2E0A0E
:100AB0000D0A00003C3C2D4F532D494E464F2D3E14
:100AC0003E204372656174696E67204170706C6985
:100AD000636174696F6E204576656E74732E2E2E79
:100AE0000A0D0A000EB51D4C4FF47A7508E0A17886
:100AF000491CC9B2A1700A2906D228461DF006FA7F
:100B00000EF084FC0028F2D1DFF854A04FF4807975
:100B10004946504603F046F9124E012700250DF1D3
:100B20000808A0780A280BD200200EF0EFFC38B19C
:100B30003078012800D167704946504603F034F9F7
:100B40000022CDE900586423114610460AF014FD36
:100B50004946504603F026F9E3E70000280000204C
:100B600000080140BF00002004480078552801D04B
:100B70001FF046F80EF0ECFEFCE700002800002015
:100B800000B585B068460CF049F9019805B000BD84
:100B900010B586B0002002900390049005900121CA
:100BA00040200CF011F900F019FB08F0CFFE07F01F
:100BB00053FF07F067FF00F0F5FA0EF083FD11F028
:100BC0009FFD042010F0D0FD04F0F0FE01221DA1D5
:100BD0001D481EF0FBF81D4908701D4C18B1E1209E
:100BE000207006B010BD01F005FA012826D00122C0
:100BF0004FF4FF1116480DF041FE20785528F0D132
:100C00001022144902A80DF039FEBDF80C00009026
:100C1000BDF81430BDF81020BDF80810002005F014
:100C200073FEBDF80E000090BDF81630BDF812201E
:100C3000BDF80A10012005F067FED2E7E020207021
:100C4000CFE70000313A0000704900202B0000205F
:100C50002800002002E01F0010B5FFF791FF0449B3
:100C60000968B0FBF1F0BDE810400AF029BD0000B2
:100C7000900D020838B545680446014628460FF035
:100C8000C1F900282AD02068304A0F2819D006DC84
:100C90000B2824D00C2810D00E2851D12FE0112879
:100CA00002D028284CD145E09268002A16D021466F
:100CB000284601B0BDE8304010472146284652681A
:100CC000F7E7284603F0AEFC0090406E04686846E3
:100CD00003F012FD002C01D02846A04738BD28465D
:100CE00003F0A0FC0090683003F0F6FB00980321AD
:100CF0006C3003F0FFFB684603F0FEFC20E0E16887
:100D0000486809680D2902D0202913D105E0002880
:100D100010DD284618F0D0F806E0002804DD28464B
:100D2000BDE8384018F0C8B82846BDE83840022170
:100D300018F0D8B8E06818B90021284600F0C6F9C4
:100D40002046BDE838400FF03DBD0000DC0100202A
:100D50002DE9FF410AAF70CF002703958DE8D00041
:100D600000F003F804B0BDE8F081F0B585B00DF1F6
:100D7000280CBCE8F0004FF0000C8DE8F01000F0FB
:100D800025F805B0F0BDF0B5044685B08069B4F92A
:100D90000850668A0027CDE90265CDE90017049066
:100DA000B4F90C00B4F91060C118B4F90A00B4F930
:100DB0000E50104433462A4600F008F80546616894
:100DC00000F0A3F905B02846F0BD00002DE9F04F72
:100DD00085B01F46DDE911B4DDE90E56904689461F
:100DE000824604F019FE4C341548CDE90204CDE9E1
:100DF00000563B464246494650460FF029FC040047
:100E000018D003F00FFC1022594604900FF062FB3B
:100E1000049830220B493430FFF7F1F9094D049959
:100E20000C3D2868486604A803F066FC2868416801
:100E30002046884706F048F805B02046BDE8F08F08
:100E4000750C0008E8010020F0B5044680688B4965
:100E500089B051F82050606800287DD0052804D062
:100E600006287AD0122879D1AEE0E86900284FD060
:100E700095E80E008DE80F0004F110010FC906F08F
:100E8000ABFD002655F8260005F089FBA169E8694D
:100E90000A1A216901446069304404F079FAA169B1
:100EA000E8690A1A21690144E069801B04F070FABC
:100EB000E169E8690A1A616901442069304404F073
:100EC0003DFBE169E8690A1A61690144A069801B78
:100ED00004F034FB761C022ED4DBA86805F05FFB1F
:100EE000E069E9696669431A20694218521E314473
:100EF000801C04F0C7FBE169E869A2690B1A61690B
:100F00000144101A401C921E04F0BCFBEE6913E071
:100F10005FF0000655F8260005F041FBE069831BF1
:100F2000A069821B606981192069304404F0A6FA27
:100F3000761C022EEEDB0226D5E90301CDE9000185
:100F40006169E06908444310A069891C821B20691B
:100F5000304404F0E1F902E089E012E08AE0D5E9EA
:100F60000501CDE90001E36960690121184401EB45
:100F70006001A0699B1E821B2069304404F0CCF9FB
:100F800078E0206803F04EFB0490206811F06EF8C2
:100F900040B1A06808B1002008E00498006F28B1B3
:100FA000012003E00498406F00B10220049901EB96
:100FB0008000C56E04A803F09FFB00231A46284654
:100FC000216803F0D9FE55E0206803F02BFB049064
:100FD000866EEEB3B0F95C70A168D1B3032942D03C
:100FE0005FF0000100EB8101406D0C6C05F0F4FA3C
:100FF000204605F0D4FA05A804F006FCBDF814104C
:10100000A88B0144ADF81410BDF81810081AADF8FB
:101010001800BDF81600801CADF81600BDF81A00C7
:10102000801EADF81A0004985E30B0F90220B0F9C5
:10103000001005A805F062F904A803F05DFB02208A
:1010400005F036FB304603F0EDFA3A4605A901E01B
:101050000BE006E0079003F0ADFF07A803F04CFBA0
:1010600008E00121BEE70221BCE704A8F6E72068FA
:1010700010F03AFC09B00020F0BD0000F8C40208EE
:1010800070B516460C46054619463046049A03F0DC
:1010900035FE024621462846BDE8704000F062B8A1
:1010A000044A0349116004494A6A4862104670477D
:1010B00018020020DC010020E801002000294FF088
:1010C000100101D00FF02DB80EF074BF4FF48072F4
:1010D0000029114601D00FF024B80EF06BBF08B5FF
:1010E0000023009300F001F808BD70B516460C46C9
:1010F000054619463046049A03F020FE0246214672
:101100002846BDE8704000F02DB82DE9FF410E469D
:1011100005004FF0010421D004F07EFC284603F0C6
:1011200081FA0190876E01A8009703F0E5FA314635
:10113000684606F0E7FF78B100980024B84208D06E
:10114000284603F06FFA01900099816601A803F028
:10115000D3FA284610F0A6F805F0B6FE04B02046F3
:10116000BDE8F081F8B515460C46060018D004F02D
:1011700053FC304603F056FA0090032C0BD800EBDA
:1011800084006C3003F0A8F9009800EB8400C56679
:10119000304610F087F8684603F0AEFA05F094FE8A
:1011A000F8BD000038B5012104200BF029FE4FF4F2
:1011B0008074ADF8004010208DF8030003208DF8F6
:1011C0000200054D6946284602F092FD2146284658
:1011D00002F0E8FD38BD0000000801404FF4A060B7
:1011E00009F0C2BCFEE700002DE9FF470446006895
:1011F00010B110F03BFF68B10022314850F82210C6
:1012000060680A2841D007DCF0B306280DD0072813
:1012100054D106E00122F0E712280AD019284DD156
:1012200037E0204612F04CFB48E0204614F05CF812
:1012300044E0206803F0F6F90290B0F9548090F889
:101240005650476C466B02A803F056FA206800F02F
:1012500039F8814668460FF0D5FBBDF8001009EB60
:1012600005000844ADF80000246A304605F0B4F9E2
:10127000022005F01DFA384605F091F9424669460C
:10128000204603F097FE19E007E0204614F029FEFF
:1012900014E0886904B0BDE8F087206810F024FBF2
:1012A000206803F0BFF90390B0F90610B0F90220EE
:1012B000891A491CC16703A803F01EFA0020E9E758
:1012C00008C5020838B5044604F0A6FB204603F022
:1012D000A9F90090C46F684603F00EFA05F0F4FD1A
:1012E000204638BD044A034911600449CA69C861EF
:1012F00010467047A4020020300800203408002067
:1013000000B589B024216846FEF7A0FF192001909E
:1013100003480068806841686846884709B000BD96
:1013200030080020AFF3008002490020086000F080
:1013300009B8000030000020014908607047000033
:101340003000002010B50948016841F0807101604B
:10135000074800214160016841F001010160FFF789
:101360000FFCBDE81040FFF7E7BF0000FCED00E018
:10137000001000E00148406870470000001000E0E5
:1013800070B500254FF4803400E0641E24B1802045
:101390000CF010F90028F8D02CB140F2FF500CF0FE
:1013A000C3F8284670BD032070BD000070B5054627
:1013B00000243B49486B00E0486B10F0450FFBD020
:1013C000410705D5032404200CF0AEF8204670BD7B
:1013D000C00705D0012401200CF0A6F8204670BDFE
:1013E0000CF0E2F8A84201D0102070BD40F2FF508E
:1013F0000CF09AF800200CF0F9F82A49084201D1C3
:10140000204670BD002801DA1C2070BD410001D5C6
:10141000092070BD810001D50A2070BDC10001D531
:101420000B2070BD010101D50C2070BD410101D51B
:101430000D2070BDC10101D50E2070BD010201D586
:101440000F2070BD410201D5102070BD810201D571
:10145000112070BDC10201D5122070BD010301D55C
:10146000132070BD410301D5142070BD810301D547
:10147000152070BDC10301D5162070BD010401D532
:10148000172070BD410401D5182070BD810401D51D
:10149000192070BD000701D51A2070BD204670BD0F
:1014A0000080014008E0FFFD10B500240E4A516B9A
:1014B00000E0516B11F0450FFBD0480705D5032420
:1014C00004200CF031F8204610BDC80705D00124D7
:1014D00001200CF029F8204610BD40F2FF500CF01E
:1014E00023F8204610BD00000080014010B5002404
:1014F0000A4A516B00E0516B11F0450FFBD04807D1
:1015000005D5032404200CF00FF8204610BD40F24E
:10151000FF500CF009F8204610BD0000008001408B
:1015200070B506460C4600251C4A506B00E0506B17
:1015300010F0450FFBD0410705D5032404200BF024
:10154000F3FF204670BDC00705D0012401200BF039
:10155000EBFF204670BD0CF027F8B04201D0102000
:1015600070BD40F2FF500BF0DFFF00200CF03EF8A2
:1015700010F4604F03D0810405D5132070BD000C1A
:101580002080284670BD410401D5102070BD0004A4
:1015900001D50F2070BD284670BD000000800140BD
:1015A00010B500204FF480310D4B5A6B01E0491EFD
:1015B0005A6B12F0450F01D10029F8D109B151073A
:1015C00005D5032404200BF0AFFF204610BD5106C3
:1015D000FCD5002440200BF0A7FF204610BD0000E2
:1015E00000800140F0B587B00FF03AFA3A2130227E
:1015F000CDE904214FF414730024CDE90243032103
:10160000CDE900013E23B4221B21212006F099FFE1
:10161000064630460EF0D4FF164D6FF07F4705EBBF
:10162000C40055F834104268304606F0C1FE3A4610
:101630002146304607F076F8641CE4B2032CEED362
:101640000D4A0121304606F0F3FF0C49304607F001
:101650000BF84FF0FF31304607F034F80A22002132
:10166000304607F03EF807B03046BDE8F0400821AC
:1016700007F011B82C61020880FFFF80389A020839
:101680000148006870470000F002002010B5FEF726
:101690006FFD064A1178491C1170FEF76DFD0CF0C4
:1016A000EDFBBDE8104009F009BB00003C00002044
:1016B000C10002D50249086070470249486070477E
:1016C0000404024000000240002904D0016841F0F7
:1016D00001010160704701684FF6FE721140016020
:1016E0007047002A03D002680A430260704702680C
:1016F0008A430260704730B5026847F6F0739A4338
:101700000C6A8B682343D1E904452C4323438C693D
:101710002343CC6923434C6A23438C6A23431343FA
:101720000360CA6842600A6882604968C16030BD6F
:101730002DE9FC410C46050038D004F06DF9112C60
:1017400016D0132C10D0A846284602F06BFF00904C
:1017500000F097FB0546684602F0CEFF20461AF0DF
:10176000F3FE064600241BE0284600F0FBFA19E0D1
:10177000284600F07DF915E02146404600F084FB44
:10178000019000781AF0E0FEC7B201A802F0B4FFA1
:10179000B74204D12146404600F02AFB02E0641C17
:1017A000AC42E9DBBDE8FC4105F08EBBBDE8FC8145
:1017B000F8B50C46050018D0002C16D004F02CF912
:1017C000284602F02FFF0090C66B684602F094FF97
:1017D0002046FEF758FD421C2146304602F0B0FF7D
:1017E00028460FF05FFD05F06FFBF8BD2DE9FF41C6
:1017F00045680446284602F015FF0190D0F888603D
:1018000001A802F079FF0EB1012700E00027214670
:1018100028460EF0F7FB002855D020680F2856D038
:1018200006DC0B2862D00C2843D00E282AD173E0A6
:10183000112839D0212802D0262823D116E0E068CB
:10184000416800291EDD00680D281BD1304608F0D4
:101850001EFB002806DB304608F019FB014628462F
:1018600000F0C6FA284600F077F86EE0E06801283C
:1018700009D00A2802D00B286AD111E00A21284693
:101880000FF0B3FD64E0304608F001FB00285FDB99
:10189000304608F0FCFA0146284600F0A9FA54E068
:1018A000284600F059F853E0FFB9E068007A90BB91
:1018B0004EE0E06848B1007A08B1012100E0022161
:1018C00028460FF092FDBDE8FF810321F8E72E4680
:1018D000284602F0A7FE0290D0F88400056802A80E
:1018E00002F00AFF0DB13046A84731E0284602F069
:1018F00099FE0090C06B02F063FF0098D0F888005A
:101900000EF098FF0098D0F8940002F0BBFD6846F6
:1019100002F0F2FE1CE010E0E0684168002917DDEB
:10192000016809290DD00A2912D01B2910D02029BD
:1019300003D02846FFF7FCFEC5E7284600F0FAF87A
:1019400006E00FF0D1F8B04202D128460FF046FF72
:1019500020460EF037FFB6E738B5040016D004F085
:101960005BF8204602F05EFE0090D0F8880040B19F
:101970000EF060FF00990020C1F8880020460FF0AB
:1019800091FC684602F0B8FE05F09EFA38BDF0B54D
:1019900085B0B0F90850468A84690296CDE90354AF
:1019A0000027CDE90017B0F90C10B0F91050B0F9CC
:1019B0000E40B0F90A00194410442B46224600F0AC
:1019C00003F805B0F0BD00002DE9FF5F1D46DDE91D
:1019D0000F8691468A4683460E9F129C04F01CF89F
:1019E0006C342149CDE90214CDE900784FF0FF3382
:1019F0004A46514658460EF02BFE04002DD002F008
:101A000011FE1022009011990EF064FD009838220A
:101A1000164980F88C604C30FEF7F1FB134E0098AD
:101A2000361F3168C0F88410002180F89010C586F8
:101A3000204600F005FA684602F05EFE02F0BDFEA8
:101A40000546204602F0EEFD0090C563684602F0B0
:101A500053FE306841682046884705F035FA04B0E7
:101A60002046BDE8F09F0000ED170008F8020020B6
:101A700010B5044600F062F9010000D0411E204676
:101A8000BDE8104000F0B4B9F8B50546006802F0B2
:101A9000C9FD0090448ED0F88860684602F02CFEA4
:101AA00006B1012604F00104286810F0DFFA0EB137
:101AB000002006E00CB1012003E008B1022000E0A4
:101AC00003201B4951F82010686858B302280CD035
:101AD000052802D0122828D103E0284611F01CFF67
:101AE00023E0284614F04DFD1FE06A69E8694FF0D5
:101AF000FF33801AA0F1080203EB6204421CAB69B9
:101B0000001B4510A3EB6206C86904F048FD06E01F
:101B10003219311B284603F03BFC641E6D1C002C5F
:101B2000F6DA02E028680FF0DFFE0020F8BD0000C2
:101B300068C502082DE9F14F9EB01E9800287DD09F
:101B400003F06AFF1E9802F06DFD08901E980FF0DA
:101B5000E1F81A900898B0F9367090F89010199141
:101B6000C16B179190F88C90B0F93410079100F088
:101B700088F9824608980BACB0F88E101591B0F930
:101B800082100A91C16C0991D0E90012CDE90512C9
:101B9000D0F894B0002100BF00EB8102126D44F830
:101BA0002120491C0329F7D300210EAD00EB81024F
:101BB000D26D45F82120491C0329F7D3002111AE2D
:101BC00000EB8102126F46F82120491C0329F7D34C
:101BD00008A802F091FD1E980FF023F802F022FDF4
:101BE0001490D0F8008014A802F086FD4FEA284037
:101BF00042420FFA88F0414205A804F07FFB5FEAF9
:101C0000897003D5BDF81600C01B01E0BDF81A00AD
:101C1000ADF816001E980FF004F801461A98CDE9A9
:101C2000000702220292BDF91630BDF914200020EF
:101C300008F059F880465FEAC97000E07BE007D001
:101C40004046199908F094FB0121404608F092FAA9
:101C5000002708E03946179802F0E6FD01464046A5
:101C600007F002FF7F1C5745F4D30027394654F88C
:101C70002720404608F0A8FA7F1C032FF6D3002443
:101C8000214655F82420404608F00BFC641C032C28
:101C9000F6D30024214656F82420404608F048FB9D
:101CA000641C032CF6D35FEA0B001ED002F0BAFCD2
:101CB00030F8025B00240126169011E0169804F01B
:101CC000070100EBD40006FA01F10078084201D0C8
:101CD000012200E000222146404608F0A7FA641CD9
:101CE000AC42EBDB16A802F007FD4046159908F060
:101CF000D0FA4046099908F080FA40460A9908F05F
:101D0000BBFB40460FF06AFD40461E9908F0FBFA07
:101D10004046079908F049FB01211E980FF065FB2A
:101D20001E9802F07FFC0890C0F8888008A802F096
:101D3000E3FC05F0C9F81FB0BDE8F08F38B5050029
:101D40004FF000040CD003F067FE284602F06AFC56
:101D50000090B0F93440684602F0CEFC05F0B4F8CB
:101D6000204638BD10B50446FFF7E8FF411C204669
:101D7000BDE8104000F03CB8044A03491160044932
:101D80000A6B08631046704730030020F4020020FD
:101D9000F8020020F8B50C46060028D003F03CFEFF
:101DA000304602F03FFC0090D0F88850C06C03F041
:101DB000D3FD07460098C464684602F09DFC304697
:101DC00000F03EF830460FF06DFA75B1204603F092
:101DD000C3FDB84205D03046FFF7BEFD3046FFF7E1
:101DE000A9FE2146284608F008FA05F06DF8F8BD6E
:101DF00038B50C46050022D003F00EFE284602F04E
:101E000011FC009000F03DF800B1401E844200DD5E
:101E100004460098B0F93410A1420BD0848668467D
:101E200002F06AFC28460FF03DFA042128460FF024
:101E3000DCFA02E0684602F05FFC05F045F838BDC8
:101E4000F8B5044602F0EEFB01460090B0F9380008
:101E500010B9C86C03F080FD0099CA6AB1F98030EE
:101E6000126800EB4300161808460FF085FF054680
:101E7000684602F041FC3246294620460FF089FDB3
:101E8000F8BDC06B02F0C4BC38B50D46002402F0AA
:101E9000C9FB0090C06B294602F0C6FC05466846A7
:101EA00002F02AFC1DB1284602F0BCFB0446204685
:101EB00038BD70474FF47A7148431CF027B80000D2
:101EC00038B5012108200AF09BFF4FF48070ADF86F
:101ED000000010208DF8030003208DF80200084C4C
:101EE0006946204601F004FF012108200AF088FF1E
:101EF0006115ADF800106946204601F0F9FE38BDC5
:101F0000000C014010B5FFF7DBFF00F00FF8064CA6
:101F10004FF40071204601F047FFA1152046BDE8AF
:101F2000104001F03FBF0000000C014010B586B02A
:101F3000012188040AF056FF012108200AF060FF01
:101F40004FF48060ADF8140018208DF817000320BE
:101F50008DF816001B4C05A9204601F0C9FEE114BE
:101F6000ADF8141004218DF8171005A9204601F0D2
:101F7000BFFE4FF4E13001900020ADF80800ADF84D
:101F80000A00ADF80C00ADF810000C20ADF80E0002
:101F90000D4C01A920460DF013FC012240F2255101
:101FA00020460DF0F2FB012240F2244120460DF0C4
:101FB000ECFB00F00BF8012120460DF0D3FB06B03E
:101FC00010BD0000000C01400048004008B54FF46F
:101FD000A06008F0C9FD27208DF8000000208DF8D2
:101FE00001008DF8020001208DF80300684608F01A
:101FF00089FD08BD70B586B0012108030AF000FF15
:10200000012110200AF0FCFE0124ADF8004003205D
:102010008DF8020010208DF803002D4D69462846EA
:1020200001F066FE012104200AF0EAFE2021ADF84D
:10203000001018218DF80310264E6946304601F035
:1020400057FE012104200AF0DBFE4021ADF800100C
:102050006946304601F04CFE012104200AF0D0FE12
:102060008021ADF800106946304601F041FE0121A3
:10207000284601F099FE0020ADF804004FF482716B
:10208000ADF80610ADF808000221ADF80A10ADF861
:102090000C400902ADF80E100821ADF81010ADF893
:1020A00012000720ADF814000B4C01A920460CF0DB
:1020B00066FD012120460CF0D5FB0CF0A3FC07497E
:1020C000884202D1002006B070BD0120FBE700006D
:1020D0000010014000080140003001401740EF00AF
:1020E0002DE9F04389B0984615460F4606004FF09B
:1020F00000042DD000F0BCFB0446304600F09FFBEE
:10210000814603F089FC03A9304600F02EFDF80754
:1021100006D0BDF91C00001B401B401C822109E0B9
:10212000B8070028BDF91800284402DA40F202215D
:1021300000E002210096CDE9018123461A46494676
:10214000FEF706FE04460021FEF7B8FF04F0BCFED1
:1021500009B02046BDE8F08310B50523FFF7C0FFA6
:102160000446054A0021FEF7BAFF044920460FF055
:1021700070FA204610BD0000B53701082DD10108C6
:102180002DE9F047456804468EB00026284602F047
:1021900049FA00905C30B0F820A0D0F80C90D0F84C
:1021A0002480C76A006800B10668684602F0A4FA95
:1021B00005E079682046884700283DD13F68002F18
:1021C000F7D12068142844D009DCA0F10B000728BF
:1021D00039D2DFE800F0BE3989B434B411002028C8
:1021E0007ED004DC17283ED01E282CD14BE02628B8
:1021F0003CD02A2827D110E02846E66802F012FADF
:102200000190717A39B9317A012904D130F87C1FF3
:1022100041F48071018001A88FE0284602F002FAA3
:102220000090E16811B1C0F8841002E0D0F8840099
:10223000E060684602F060FA0EB0BDE8F087002E5C
:102240007DD02846B0477AE02146284617F002F9AB
:10225000F2E705A9284600F088FCE06806990160CD
:1022600007994160E8E7C4F80C90E5E7E0680228C8
:10227000E2D10C95E0680D9027200A900AA9A06889
:1022800010F0F6F8D8E7E068012804D000212846CD
:1022900000F066FBD0E740460FF05FF858B14046CB
:1022A0000FF09CFA40460EF029FF88B1012140460C
:1022B0000DF037FF0CE048460FF0E4FA8046284660
:1022C00002F0B0F90090C0F88080684602F014FA7D
:1022D0000121284600F044FBB8F1000FACD100E02A
:1022E0000EE00020E060A7E75FEA0A7027D4E0680C
:1022F000C06820B3007A10B328460FF06FFA1EE0D2
:10230000E668E6B1294670680FF099FE20B1012118
:10231000284619F099FB12E00021284619F094FB99
:10232000294630680FF07AFE48B1284602F07AF963
:1023300003903168C0F8801003A802F0DDF921464F
:1023400028460DF05FFE00288CD020460EF03AFAA9
:1023500072E7284602F066F90090703002F0BCF88F
:102360006846EAE7F0B587B0B0F908400DF10C0C0B
:102370000C9E87694568ACE8F000448A0025CDE9E9
:1023800000150294B0F90C10B0F91050B0F90E40DD
:10239000B0F90A00194410442B46224600F002F816
:1023A00007B0F0BD2DE9F04F8BB09846DDE915562A
:1023B00091468A468346149F1A9C03F02DFB603495
:1023C000314845F48055CDE90204CDE90075434616
:1023D0004A46514658460EF03BF904004DD002F0F3
:1023E00021F93022049017990EF074F804982822ED
:1023F00026493430FDF703FF049819995C30234FC8
:1024000081600684002646620661083FC6627968DC
:10241000016004A802F070F905A9204600F0A5FBB0
:102420001B4841F2827103960094CDE90110BDF979
:102430001E00BDF91A10BDF91C20431ABDF9180081
:102440005B1C121A521C0EF003F9064678684168AC
:1024500020468847204602F0E5F80490866604A8E6
:1024600002F04AF942F20400054202D120460EF081
:1024700049FA2046189900F0E2FA04F025FD0BB065
:102480002046BDE8F08F000081210008F403002001
:10249000792E00082DE9F041044694B0006800F060
:1024A000B7F908B1D94D01E0D84D2C356068152831
:1024B0001ED00CDC0B281FD004DC00287ED00528A1
:1024C0007DD12EE10E287BD01228F9D141E11628CA
:1024D00006D0172808D0182808D01C28F0D109E009
:1024E000E86914B0BDE8F081286AFAE7686AF8E79D
:1024F000A86AF6E76869F4E720680B901C200C9046
:10250000206802F08FF80390016D0BA888470646FB
:1025100003A802F0F1F8022E0EDB95E807008DE823
:102520000700D4E904023346A16905F01BFA2069CB
:102530008719A069801B2BE0286804F030F8216916
:10254000E8690A18521E606902F022FFA269E86970
:10255000111A491C606902F01BFF676920697F1C22
:10256000394602F065FF3946A06902F061FF6868EC
:1025700004F015F820693946401C02F059FFA069A3
:102580003946401E02F054FF2769A069BF1C801E17
:102590008046286804F003F842463946606902F034
:1025A000F7FE686803F0FBFF60694246401C39464D
:1025B00002F0EEFE686A02280FDD02E015E1AFE0EE
:1025C00000E1A86803F0EBFF61696A6A881C8B1858
:1025D00001465B1E4246384627E0296AB14226DDA5
:1025E0006069022E074600F1020801DB374401E072
:1025F00007F10207206901DB304401E000F102002D
:1026000022693B460A44A2F10102414603F03AF82E
:10261000022E02DBA069821B01E0A269921EA06962
:10262000E9693B46401A401C414603F02BF8022E54
:1026300002DB6069064401E06669B61CE769286848
:102640007F1E03F0ACFF3A463146206902F076FF68
:102650003A463146A06902F071FFE7696868BF1E1B
:1026600003F09DFF20693A46401C314602F066FFA8
:10267000A0693A46401E314602F060FFE869022830
:1026800002DC286A022823DDA86A022802DDE1694B
:102690000F1A01E0E769BF1EA86803F080FFE9692F
:1026A000022909DD20693B46421800F1020C521E46
:1026B0003146604602F0E6FF286A022808DDA2697A
:1026C000E8693B46101A401C921E314602F0DAFFC0
:1026D000286803F064FFD4E90620216902F058FE5F
:1026E000686803F05CFFA2692169E069521E491C19
:1026F000401E02F04DFEA86A022811DD2669A1697C
:10270000E469B61C271AA1F102087F1CA41EA86860
:1027100003F045FF234642463946304602F0B2FFF9
:1027200072E0208A06B2ADF81460A08A01B2ADF85A
:102730001610208B02B2ADF81820A08B03B2ADF8B2
:102740001A30D5E90304CDE90004304602F0E4FD77
:102750005AE0208A298B0844ADF81400A08AADF80D
:102760001600208B298B401AADF81800A08BADF80D
:102770001A00206801F056FF0390006FF0B10220AC
:1027800003F096FF039991F87C00C0F3C00001EBC1
:102790008000006C03F003FF0398406B03F01CFF04
:1027A0000398006F01F03EFF03990A90B1F95A2097
:1027B00005A902F0FFFB0AA801F09EFF03A801F0A3
:1027C0009BFF21E0208AADF81400A08AADF8160026
:1027D000208BADF81800A08BADF81A00A86803F0A4
:1027E000DEFE05A802F07AFF0EE0206801F01AFF75
:1027F000039030F85A1F41F00C01018003A801F04A
:102800007BFF20680FF070F800206AE6300400209B
:1028100038B505004FF000040FD003F0FDF828464E
:1028200001F000FF009090F87C00000700D5012423
:10283000684601F061FF04F047FB204638BD38B51B
:1028400005004FF0000411D003F0E6F8284601F02F
:10285000E9FE0090C06D002180680268284690471C
:102860000446684601F048FF04F02EFB204638BDC0
:1028700030B587B005004FF0000413D003F0CCF85A
:1028800001A9284600F071F9284601F0CBFE00901E
:10289000B0F95440684601F02FFF0CB9BDF904406F
:1028A00004F012FB07B0204630BD30B504468BB0B3
:1028B000006801F0B7FE009090F87C10246A006F69
:1028C000C1F3C00508B101F0ADFE0690E0680290CA
:1028D00020690390A088401EADF81000E089ADF893
:1028E00012002089401CADF81400608AADF8160073
:1028F000BDF80800401CADF80800BDF80A00401CF7
:10290000ADF80A00BDF80C00401EADF80C000098B0
:10291000406B03F061FE009808AA02A9B0F95A3092
:10292000069804F063FC009800EB8500806B06F0CD
:10293000E5FC009800EB8500006C06F017FD08AB85
:1029400002AA04A906980DF0D5FC684601F0D4FE51
:10295000069810B106A801F0CFFE0BB0002030BDE4
:1029600070B50D46040009D003F056F829462046FC
:1029700019F06AF8BDE8704004F0A6BA70BD000016
:10298000074A0649054B1160064A083BD169586061
:102990001B68C2E906300846704700002404002086
:1029A000F0030020F40300202DE9FC410D46804691
:1029B00003F032F85FEA080028D001F033FE0190FE
:1029C000C16D8C6800F038F907460198456301A88D
:1029D00001F092FE22680121404690470646226897
:1029E0000321404690470546226800214046904713
:1029F0000446404600F009FA2B4632463946404626
:102A0000009400F091F940460EF04CFC04F05CFAA2
:102A1000BDE8FC8138B50C46054602F0FDFF55B116
:102A2000284601F0FFFD00900466684601F064FE50
:102A300028460EF037FCBDE8384004F045BA7CB5B6
:102A40000D4604001DD002F0E7FF204601F0EAFD2C
:102A50000090006F0190684601F04EFE294601A8E3
:102A600005F050FB58B1204601F0DCFD00900199C3
:102A70000167684601F040FE20460EF013FC04F0AA
:102A800023FA7CBD38B50C46050013D002F0C4FF14
:102A9000284601F0C7FD0090B0F95A10A14204D0B9
:102AA000A0F85A4028460EF0FDFB684601F024FECF
:102AB00004F00AFA38BD000038B50C46050015D000
:102AC00002F0AAFF284601F0ADFD0022CDF800007B
:102AD00000EB8201521C0C64022AF9D3684601F013
:102AE0000BFE28460EF0DEFB04F0EEF938BD2DE9B2
:102AF000FC470D465FEA00094FF0000432D002F0B7
:102B00008BFF484601F08EFD0190B0F95440A5427C
:102B100023D000F091F8804601980121A0F854508C
:102B2000C06D856848462A68904707462A68032191
:102B30004846904706462A68002148469047054681
:102B4000484600F062F933463A4641464846009509
:102B500000F0EAF848460EF0A5FB01A801F0CCFD14
:102B600004F0B2F92046BDE8FC872DE9F34F85B0AB
:102B700000270C46B846059801F054FD0090C06D42
:102B80000121856805982A68904782462A680321B2
:102B90000598904704902A68022105989047039071
:102BA0002A68002105989047064600980FF0E4F83F
:102BB000834600980FF0E7F88146009890F83210AD
:102BC000890601D5B0F9588000F036F8054600981E
:102BD000C06E10B10EF0B5F8074625806780A4F8E6
:102BE00004A0049AABEB020006EB0802401E2A4444
:102BF00020813A44E280039BA9EB0302521E6281CA
:102C0000A4F80CA020827019E681401E60826846FC
:102C100001F072FDB4F90C000190B4F910000290BB
:102C200002AA01A9059800F039F80198A08102983C
:102C3000208207B0BDE8F08F10B50146002091F862
:102C40003220920607D5B1F95400002803D1486B11
:102C500002F086FE801C10BD70B58AB00C46054699
:102C600001F0E0FC0990C06D866809A801F044FD00
:102C7000009534B1012C06D0022C0BD0032C04D1CA
:102C80000AE0182000E01620019071686846884725
:102C90000AB070BD1520F7E71720F5E72DE9FC47CE
:102CA00090468946044601F0BDFC0090C16D056860
:102CB00068468E6801F020FD32680021204690476A
:102CC000064620460DF0F3FE2F1404462DB227E0F1
:102CD00001F0A8FC0190B0F90010B0F90420B0F99F
:102CE0000230491B521BDB1BB34212D190F8280063
:102CF000000607D5D8F8000088420ADB491EC8F84C
:102D0000001006E0D9F80000904202DC521CC9F81D
:102D1000002001A801F0F0FC20460DF075FF0446EC
:102D2000002CD5D1BDE8FC872DE9FF4F83B00E46BE
:102D30000746DDF8409001F075FC0190C16D8D688B
:102D4000FFF77AFF044601A801F0D6FC2A680121AA
:102D50003846904783462A68032138469047824682
:102D60002A680021384690470546B44207D10599A4
:102D70008B4504D106998A4501D14D4542D0A41B0B
:102D80000026B04638460DF092FE39E001F04AFCCC
:102D90000090806A010602D54FEA805002E081056A
:102DA00028D50006002825DB24B1224611463846E6
:102DB0000EF05BFB009890F8280000060AD50698F4
:102DC000A5EB0902A0EB0A0004FB1601761C3846AD
:102DD0000EF0FCFA0098008D80050BD50599A5EB47
:102DE0000902ABEB010004FB080108F101083846B9
:102DF0000EF0ECFA684601F07FFC38460DF004FF57
:102E00000700C3D107B0BDE8F08F70B586B00646A5
:102E100001F008FC0590D0E91A4505A801F06CFC0A
:102E200054EA050026D069463046FFF79EFEACB155
:102E3000BDF90620BDF9041020460EF09AFABDF93E
:102E40000A00BDF90610421ABDF90800BDF90410C8
:102E5000521C411A491C20460EF09BFD002D09D042
:102E6000BDF90600BDF90210421ABDF9041028464A
:102E70000EF07FFA06B070BD2DE9F04304464068BD
:102E800085B006460DF0CDFE814601F0CBFB0090EB
:102E9000D0F88080876C456E684601F02DFC206874
:102EA000172859D008DC0E2837D00F280BD014284B
:102EB00052D015283AD14FE01E2818D01F2827D00D
:102EC000222833D146E06FF07040874204D0384664
:102ED00006F014FA01F0A0FD002D12D0D4E9021280
:102EE0002068CDE90106CDE9031201A822E0E068DF
:102EF000002806D05FEA080006D0B04504D00EF0E6
:102F00006DFC05B0BDE8F08330460EF0BBFC16E06A
:102F1000214648460DF076F8F3E7E068416800295D
:102F200004DD00680928EFD00A2805D0A5B12046A5
:102F3000C4F80490A847E4E730460EF0B2FC04461B
:102F4000484601F06FFB0090C0F88040684601F0F1
:102F5000D3FBD6E7E760D4E720460DF033FCD0E79B
:102F60008000A0F1C040002904D0016841F00101B7
:102F7000016070470168024A11400160704700001B
:102F8000FEFF0F0010B5D0E901121143D0E9032371
:102F90001A4311434269114382691143C2691143C3
:102FA000026A1143426A1143826A1143C26A1143A1
:102FB000026B114302689200A2F1C0421160816865
:102FC000082907D101688900A1F1C0410A6842F0CF
:102FD00040020A60416BD1E9002342EA03128B6888
:102FE0008C891B0243EA04431A430B8A42EA0352C8
:102FF0000B7D896942EA03620A430168491C890022
:10300000A1F1C0410A60C16AB1F5804F08D00068E3
:103010006FF070418000A0F1C040C0F8041110BDF5
:10302000816BD1E9002342EA03128B680C8A1B02F0
:1030300043EA04531A430B7D896942EA036200683C
:103040000A438000A0F1C040C0F8042110BD000078
:103050002DE9F04F9DB07BA019F098FF814D4FF006
:10306000DC0885F80080062068700F20A8700A210F
:10307000E970287100276F710126AE717A4C2770B4
:10308000F1027A481BF02FF8310379481BF02BF836
:10309000677185F800800CF03FFD0A2001F0A4FE66
:1030A0000CF008FD0CF0F4FE0DF0DAFC034600977E
:1030B000704A0A217048019701F0FAFC1C900DF14A
:1030C0000C096E4DB6E04FF4B97B4FF00708DFF8FE
:1030D000B0A191E06079012802D0032877D082E086
:1030E000DFF8A08188F8A471C8F8AC71C8F8A8719D
:1030F0004FF4887A51461C980DF0C8FCE17807F02F
:1031000054F951461C980DF0C1FC642303AAE178E0
:1031100006F081FE4FF4B0711C980DF0B7FC03A9C6
:103120000BF0E7FE0020E17808F5D87201EBC1034F
:1031300003EB011102EB810203E009F80010401CCF
:1031400080B2115C0029F8D109F800704EA103A8E3
:103150001CF0E9FD4FF4805A514645481AF0C3FF70
:10316000002008EB4001A1F8F07008EB000181F8A5
:10317000687148F82070401C80B23C28F1D30122CD
:1031800003A942481BF048FEDFF8048188F80000DC
:10319000B8B93E48C268524513D23E4B34491BF081
:1031A00021FF88F8000060B902A807F023FE30492B
:1031B00034481CF0F8FD33481CF0C8FD02A807F0A5
:1031C00039FE32481BF087FC667019E0FFE7667134
:1031D00059461C980DF05AFC07232F4A0021CDF8C0
:1031E0000080FDF74DFF9AF8000010B11C980DF01B
:1031F00021FB0A2001F0F8FD287800287FF46AAF4F
:103200002878B8B10020E178244A01EBC10303EB30
:10321000011102EB810203E009F80010401C80B2AA
:10322000115C0029F8D109F8007003A81C991DF061
:103230003FFB6770287800287FF445AF1DB0BDE8DC
:10324000F08F00003C3C2D4F532D494E464F2D3EF4
:103250003E204D757369636170702063726561749F
:10326000650A0A00B8000020CC0000201C7600206F
:103270009C5A002041D10108B88B0208C0000020F0
:10328000290000209C6C00206C726300A0230020A9
:103290002B0000202C000020985602084C6E0020C5
:1032A0002DE9FC5FDFF87081002688F80A60A8F13C
:1032B0001900867559A019F069FE6148F021017066
:1032C000062141700F2181700A22C270017146717E
:1032D00001218171A8F123000670417086700221DE
:1032E000C1700CF019FC4FF47A701AF00FFE0CF05C
:1032F000E1FB0CF0CDFD0DF0B3FB03460096514A07
:1033000009215148019601F0D3FB82464FA01AF0E3
:10331000D7FEA8F125054FF4B07BDFF83C9174E0AF
:103320006878012835D101244C4F3B4822464CA1F6
:10333000193819F03BFE3849012219394E481BF063
:103340006BFD3870042806D04B481BF0C4FB641C8E
:10335000E4B2FF2CE9D3304948A0193919F016FE20
:10336000FF2C19D0224641A12B4819F01FFE88F8E6
:103370000A60594650460DF089FB27490BF0B9FD0C
:103380002548514619381CF0DBFF41A144480CF098
:10339000CCFA687810B12FE06E7036E028780128FA
:1033A0002AD11D493FA01D39FCF79AFF3EA0A9680C
:1033B00019F0ECFD2DA11848AA6819F0F7FD88F85E
:1033C0000A60154931A019F0E1FD594650460DF04B
:1033D0005DFB11490BF08DFD0F4821A11938AA683A
:1033E00019F0E4FD0C4934A0193919F0CFFD0A4851
:1033F000514619381CF0D8FE3448007810B15046B8
:103400000DF018FA0A2001F0EFFC99F800000028EE
:1034100086D1BDE8FC9F0000F90000203C3C2D4F08
:10342000532D494E464F2D3E3E205265636F7264C8
:103430006572617070206372656174650A0A0000CC
:10344000B800002079D60108D08C0208313A2F72DA
:1034500065636F7264657200C10000202B0000205C
:10346000313A2F7265636F726465722F72656325DE
:103470003033642E77617600A02300207265636F7D
:1034800072643A66696C656E616D653A25730A000F
:103490005265636F7264696E6720446F6E650000E9
:1034A0000038014025640000696E73747275203D18
:1034B0002025640A00000000706C61793A66696C2E
:1034C000656E616D653A25730A00000029000020D1
:1034D0001CB50DF0C5FA0346002000900190034A88
:1034E0000621034801F0E4FA1CBD0000E5D50108FF
:1034F000CC8D02082DE9FC470E46002400270097DA
:103500000197584D4FF0080AC5F800A010206860D8
:103510004FF04009C5F80890EF604FF48068C5F897
:10352000108028460AF0A8F81020FDF73FFF002879
:1035300033D14D4800890004286037206860C5F801
:103540000890EF60C5F8108028460AF095F83720FB
:10355000FDF72CFF002820D105F114004AF6FF7179
:103560000160C0F804A0302181600221C1600761C0
:103570000121416109F0F0FF2F6033206860C5F838
:103580000890EF60C5F8108028460AF075F83320DF
:10359000FDF70CFF0546280001D0BDE8FC874FF47D
:1035A000001A6F46DFF8C48040F22A6908E05046EE
:1035B0000AF000F820B10AF059F847F82400641C1A
:1035C000D8F8340010EA090FF1D0082009F0F2FF12
:1035D00020B1082009F0A8FF0420DEE7022009F04E
:1035E000E9FF20B1022009F09FFF0220D5E720204B
:1035F00009F0E0FF20B1202009F096FF0620CCE77B
:103600004FF40074204609F0D5FF20B1204609F0A0
:103610008BFF0720C1E740F2FF5009F085FF0098BB
:103620000099000601F47F4140EA0120009901F46D
:103630007F0140EA1120009940EA11607060019812
:103640000199000601F47F4140EA0120019901F44B
:103650007F0140EA1120019940EA1160306028465C
:103660009BE70000405A0020A0000020008001409D
:103670002DE9F0430446C56887B09046894600208E
:1036800002F09EFF064625B1287910B146F00200EF
:1036900001E026F0020002F093FF2069012558B1F5
:1036A000D4E902128DE82600039563882288046815
:1036B00041464846A0471EE0124F134B214638684A
:1036C0001B68427CE068984730B9E088012801D047
:1036D000002001E03868806BA288E388A16800952B
:1036E000CDE90410CDE90232019563882288414674
:1036F000484605F003FA07B03046BDE8F04302F053
:103700005FBF000028010020200100201CB500241C
:10371000019401AC009400F0E7F81CBD2DE9FF4FC7
:1037200083B0814606988A46A0EB0A08109E0020C6
:103730000090A2EB09043568934654EA080018D0BB
:103740002046FDF72BF907464046FDF727F987424B
:103750000BDA2046444680464846D14682465846C3
:10376000DDF818B0069001200090002C07DD2046FF
:1037700006E007B04846BDE8F04F00F03BB96042B4
:10378000A0420AD04846D9466442C8F100088346A0
:103790004FF0FF37DDF818A000E001275148B8F1DD
:1037A000000F11D004EBD4714FEA610B01DACBF1B9
:1037B000000B4C480068807E88B3002F02DA306826
:1037C0002044306000257BE000990029016821D069
:1037D000897E11B10027804615E007B05A46494658
:1037E0005046BDE8F04F05F0EDBA28466D1C18F0C4
:1037F00033FA38B9D8F8000009EB0701C06E426807
:10380000504690477F1CA742EFDD6D1E356007B024
:10381000BDE8F08F8A7E1AB10027804617E019E0D4
:10382000C86E5A465146036807B04846BDE8F04F97
:10383000184728466D1C18F00FFA38B9D8F8001050
:1038400009EB0700C96E4A68514690477F1CA742A2
:10385000EFDDDAE700250FE008FB05B090FBF4F19F
:1038600001EB0A00009951B11E4A09EB05011268EB
:10387000D26E526890476D1CA542EDDDC7E719492D
:1038800009EB05030968C96E4A6801461846F1E765
:1038900008FB05B090FBF4F101EB0A0001903068E1
:1038A0003844306018F0D8F948B9009890B10D4804
:1038B00009EB05010068C06E4268019890476D1CD5
:1038C000A542E5DD3068002F01DA20443060C01BDE
:1038D00030609CE7034909EB05000968C96E4A6836
:1038E0000199EBE7280100202DE9FF470F464049E9
:1038F0001646804609680C981D460A7E012A1CD08F
:10390000A8EB0600791B50EA01031CD0A2F10109C3
:1039100019F070FB00F58060824604F0E1FC00FBCA
:1039200009F4504604F0E0FC00FB09F1002C0CDA2D
:10393000C4F50070801240420AE0009032463946D9
:103940004046FFF7EBFEBDE8FF8704F50074A012C8
:10395000002904DAC1F5007189124C4202E001F538
:1039600000718C12002804DD411C01EBD17149105B
:1039700003E000EBD0714910401E00EBD070421004
:10398000002C04DD601C00EBD070401003E004EB61
:10399000D4704010641E04EBD47308EB0104ADF83E
:1039A00000403C18ADF80240A8EB02045B10B21ACC
:1039B000ADF80440ADF808203144FC1AEA1AADF81D
:1039C0000C102844ADF80A20ADF80E000023ADF825
:1039D00006401A460421684600F07AF83946404607
:1039E00012F0CCFC2946304612F0C8FCABE70000D0
:1039F00028010020064A13681A7E012A05D0521EAB
:103A000002EBD272521000F005B8DA6E526810471D
:103A1000280100202DE9F05F0646884640F2C320C9
:103A200050434FF47A7190FBF1F702FB02F002EB86
:103A3000D27100EB610B254914467F1C09683244A2
:103A4000301BC96E0B684146984701253AE000BF1C
:103A500005FB05F004FB040159451CDDBC4219DDE2
:103A60001A4B06EB050AA6EB05091B68AAF1010231
:103A700008EB0401DB6E09F101001B689847134B4A
:103A8000AAF10102A8EB04011B6809F10100DB6E39
:103A90001B689847641E0D4806EB040AA6EB040950
:103AA000006808EB05015246C06E03684846984717
:103AB0000648A8EB050152460068C06E03684846F8
:103AC00098476D1CBD42C3DDBDE8F09F2801002072
:103AD0002DE9FF4F40F6FF740F46664283B09B46C8
:103AE000814600210BE000BF09EB8100B0F9020024
:103AF000A04200DA0446B04200DD0646491CB94245
:103B0000F2DB68480068406900280DD0B0F9061063
:103B10001A46A1EB0B01B14200DA0E46B0F90200E1
:103B2000801AA04200DD0446B5E0DFF87CA1002049
:103B30000546CAF8000089E0781E854201DA6B1C50
:103B400000E0002309EB850C09EB8302BCF90200BD
:103B5000B2F90210A04245D1A14215D139F9233062
:103B6000059A39F9251003EB020C4E4A05981268A4
:103B7000084404EB0B01D26E6045136801DA62461B
:103B80002BE00246604628E02846A4464FF0000895
:103B90007A1E0BE008B1401E00E0781E09EB80039E
:103BA000B3F90230634504D108F101089045F1DB17
:103BB0002346A34249D0A3EB040239F92500A1EB27
:103BC000040C059B92EA0C0209D4364A184404EB13
:103BD0000B011268D26E13680246984735E00EF06A
:103BE00037FE32E0A14230D001DBA04203DDA0422B
:103BF0002BDBA14229DCE04688420ADC0346A042D6
:103C000023DC0846A14220DBB8F900C0B2F900105D
:103C100008E00B46A14218DCA04216DBB2F900C056
:103C2000B8F90010E21AA1EB0C0151430029A0EBF6
:103C3000030202DD01EB620102E0A1EB6201491C1B
:103C4000C01A91FBF0F06044C9E76D1CBD42FFF65D
:103C500073AF0598009004EB0B00019000208046A4
:103C6000054613E01149B8F1000F31F915A009D04C
:103C7000009901EB0A0208440A490968C96E0B68F9
:103C80000199984788F0010850466D1C064909685B
:103C90008D42E7DB641CB4427FF747AF07B0BDE855
:103CA000F08F0000280100203809002030E70020B4
:103CB00010B5002002F05CFC6FF07F4002F06FFC5A
:103CC000012002F0D7FC002002F0E2FC002002F00C
:103CD000EFFC002002F074FC0448006802F07CFC59
:103CE000BDE81040002002F097BC00002401002035
:103CF0002DE9F0410022CC7804F00F03E40601D551
:103D00008C7823430C784FF00F0714F0FF0F4FF01F
:103D1000010C1CD005680CFA02F40E882640A6425D
:103D200011D1960007FA06F825EA080503FA06F805
:103D300048EA0505CE78282E02D0482E02D002E0AF
:103D4000446100E00461521C082AE4D305600A883B
:103D5000FF2A1ED94568002202F108060CFA06F473
:103D60000E882640A64210D1960007FA06F825EAEA
:103D7000080503FA06F848EA0505CE78282E00D192
:103D80004461CE78482E00D10461521C082AE3D346
:103D90004560BDE8F0810246002092680A4200D0EA
:103DA00001207047416170470161704770B50C4652
:103DB000054600F0F1F8A8682168C16261680163F6
:103DC000A1684163490707D5D0E90021C0E9001285
:103DD000D0E90221C0E90212A18981842169002968
:103DE00003D001DC4FF00001016270BD2DE9F0410C
:103DF0001E4617468846054600F0CEF8AC68682295
:103E0000414604F58470FCF7FAF92846B84728467D
:103E1000B047286980688047A062BDE8F081000053
:103E200010B5044600F0B8F8A0680E494C30114AAD
:103E3000C1650D4981650D4901660D498166002105
:103E4000C166136843660C4BC0E91E315168416777
:103E500030F8261C21F0030120F8261C0749416494
:103E600010BD000059BD010891C1010821BD010824
:103E7000B9B60108D40100201DB8010829BC010809
:103E800010B5044600F088F8A4680C48903410215E
:103E900020650B4860650B48A0650B48E0650B4842
:103EA000E0600B482061206BA06654F89029204602
:103EB00090471020A0630748606410BDF5510108C9
:103EC000B96F0108D93E00080940000873B601081F
:103ED000C9C70108A4D70208F8B5846815460F467B
:103EE00094F8260080074CD5D4F8FC30204698473B
:103EF0000646D4F800312A46394620469847D4F879
:103F0000943005461BB100220121204698472069C4
:103F1000B04201DD012000E00020A169B14201DAD8
:103F2000012100E0002108436169A94201DD01216E
:103F300000E000210843E169A94201DA012100E023
:103F4000002108430AD06068401E00902368D4F81E
:103F5000A4705B1E002211462046B847D4F8A83052
:103F60002A46314620469847D4F89C102046884778
:103F7000D4F8943005466BB10122002120469847C1
:103F800008E0D4F8A83020469847D4F89C10204682
:103F9000884705462846F8BD70B504468068002865
:103FA00012D14FF4B875284600F0B2FA2A46002123
:103FB000A06004F019F9A0680221C1840121046401
:103FC00001620249C0F8041170BD0000D13F000831
:103FD00010B590B0044620220A496846FCF70FF954
:103FE00008492022203108A8FCF709F9606B5DF828
:103FF0002010C4F8FC1008A951F82000C4F80001F2
:1040000010B010BD0C9302082DE9F843846898465F
:10401000154694F826000F46800740D5D4F8FC30AA
:10402000204698470646D4F800312A4639462046AD
:10403000984705462069B04201DD012000E00020DC
:10404000A169B14201DA012100E000210843616960
:10405000A94201DD012100E000210843E169A942F4
:1040600001DA012100E0002108430AD06068401E07
:1040700000902368D4F8A4705B1E002211462046ED
:10408000B847D4F8A8302A46314620469847D4F895
:10409000A02001B041462046BDE8F0431047D4F8C7
:1040A000A830F2E72DE9F04FDFF828B191B04FF0DA
:1040B000FF35DBF80030B3F922100691DE69B3F961
:1040C00024A0F469A189814206D8E289824203D3FF
:1040D000471AD4F8008012E0D4E90181002970D099
:1040E0000A8882426DD84D8885426AD3801A82B28E
:1040F000486800EB8200B0F90070B0F90250781CFB
:104100005FD0307EA27C014600FB02F9207CCDE925
:104110000810B3F92A60304605F03AF9C0B20E90A3
:10412000DBF8001007FB0980A37C8A6B0127CDE92F
:104130000402CDE90273C869DDE90832C17E807EE0
:10414000CDE900015146069804F0D8FC681C18D04F
:1041500046F0020005F01CF9DBF80000A37C05FB2B
:104160000981826BCDE90273CDE90412C069DDE9F2
:104170000832C17E807ECDE900015146069804F0E8
:10418000BDFCDBF800005D46C069417E007E8142D7
:1041900014D9022E12D086F0040005F0F9F8286830
:1041A000C069027EC37E857E02FB03A1437E099A1D
:1041B0000698534402FB050204F02EFE0E9805F00B
:1041C000E7F8DBF80000627C418C1144418411B0B7
:1041D000BDE8F08F2801002004480068C069C0696C
:1041E00009B1027C0A60407C704700002801002071
:1041F000022008807047C06982898A4202D8C28939
:104200008A4210D2806880B102888A420DD84388E1
:104210008B420AD3406800EB8100A0EB8200B0F92A
:104220000000002801DB01207047002070470000DB
:104230002DE9F0432F4C034687B020681946B0F9AA
:104240002A80C069C06900F082F800284ED0416819
:104250000088181A01EBC0054046AE7805F098F8C2
:10426000814620686A680123816BCDE90236CDE979
:104270000421C169CB7E8A7ECDE900230B7EB0F993
:1042800024102A78B0F9220004F038FC2068C069B4
:10429000477E067EB7421DD9C07E47434643B8F1EC
:1042A000020F17D001F0B5FA804601F07BFA02F058
:1042B00076F921682A78CB69B1F92200B1F9241086
:1042C000DB7E02FB0302CB19314404F0A5FD40461E
:1042D00002F065F9484605F05BF820686A78C36922
:1042E000B0F922109B7E02FB0311418407B0BDE8A8
:1042F000F08300002801002030B50E4C05460B4627
:1043000020682946C069C06900F021F8002810D053
:104310004168008824682A1A0120E46900EBC20081
:10432000085CA47E6043002B03D011F83210614377
:10433000196030BD2801002001200880704700B5B9
:10434000C06900F004F8002800D0012000BD06E09C
:1043500002888A4202D842888A4202D280680028B3
:10436000F6D1704770B500240E4D16E028690E494D
:1043700000EBC410001D78220968FBF740FF286994
:10438000002100EBC410016000F10C018161011DEE
:104390000A1DC0E90F12641C4164A8688442E5DB71
:1043A00070BD0000DC0700202801002070B50D4919
:1043B0000B480860084603F09DFE0A4C143CA068B8
:1043C000C501284600F0A4F82A460021206103F028
:1043D0000BFF4FF0FF302060BDE8704002F0AABE36
:1043E00015900108F0070020F8B50C0005460FD025
:1043F00001F012FB204600F017F8060010D000F084
:1044000011F9224600902DB12946FBF7F8FE04E091
:104410000020F8BD002103F0E7FE684600F06CF9CB
:1044200002F052FD3046F8BD10B5040009D001F08D
:10443000F3FA20460EF04CFB044602F045FD204600
:1044400010BD002010BD38B5054601F0E5FA28463C
:10445000FFF7EAFF040009D000F0E4F82A46002143
:10446000009003F0C1FE684600F046F902F02CFD12
:10447000204638BD024A106021F0030050607047AA
:1044800058E5002010B5040016D001F0C5FA0B481D
:10449000006B10F8341059B1022909D2042101EB44
:1044A000C401415848680EF0EFF9204617F0C4F8EF
:1044B000BDE8104002F008BD10BD00009CE40020E3
:1044C000002805D0034A916B016001B148609063F8
:1044D000704700009CE4002010B5044601F09CFAEF
:1044E0002068FFF7CFFF00202060BDE8104002F0F9
:1044F000EBBC000070B50D460646002405E000BF89
:1045000006EB8400FFF7E8FF641CAC42F8DB70BDEB
:104510002DE9F041044614F035FA2648E41C24F055
:104520000305C16B2D1DA94200D90D46846B13E014
:1045300054F8042CAA420ED184B1216809B16268F2
:104540004A60616809B122680A60826BA2422ED17A
:10455000216881632BE02468002CE9D18046416BFF
:1045600080680F1857F8040C3E1A306838B10020E4
:1045700017F0DAF957F8040C3E1A3068B8B97068C9
:10458000A84214DB3044441B304617F085F9D8F8B4
:104590000810491BC8F80810D8F810102944C8F8AA
:1045A000101070683146401B0EF06EF920C4204692
:1045B000BDE8F0819CE4002010B5002414F0E2F97D
:1045C0000C490F2001EBC002126C1AB101EBC000C4
:1045D000006C08E0401EF5D508E04168A14200D912
:1045E0000C46806810B180680028F6D1A4F10C0058
:1045F00010BD00009CE40020002138B104490422D1
:1046000002EBC000096B085841680C390846704736
:104610009CE4002002484169491C41617047000048
:104620009CE4002005498A69521C8A61096B01EBF0
:10463000C0010A78521C0A7000F076B89CE4002091
:104640007CB506460C460846FFF7EEFE050020D076
:10465000FEB13046FFF7D0FFA04200DA044601F079
:10466000DBF92846FFF7DEFF00903046FFF7DAFF60
:104670000146019022460098FBF7C1FD684600F014
:104680003BF801A800F038F83046FFF7FBFE02F0D7
:104690001BFC28467CBD000010B501F0BDF9FFF7FA
:1046A0008BFF64220849B0F5800F04D990FBF2F427
:1046B000C869444303E0C9694143B1FBF2F402F025
:1046C00003FC204610BD00009CE400200549102892
:1046D00005D94A68B0EB520F02D3500800E0102011
:1046E0008860704758E5002002484169491E4161D1
:1046F000704700009CE400200A4902680B6B52F8E6
:10470000082C03EBC2021378022B03D38B690BB185
:104710005B1E8B611178491E1170002101600846F3
:10472000704700009CE40020002806D003490422C2
:1047300002EBC000096B0858083070479CE4002069
:104740002DE9FC414FF000060B465FEA00083446B5
:104750002BD032B111461846FFF746FE060000D1B5
:1047600001244046FFF75EFF0090078845686846D1
:10477000FFF7C2FFCCB9B900091D2846FFF760FF5B
:10478000050015D0FFF74EFF019040F8276001A803
:10479000FFF7B2FF4046FFF745FF009045600188F4
:1047A000491C01806846FFF7A7FF2046BDE8FC8151
:1047B0003046FFF767FE0124F7E70820FFF743BE06
:1047C0007CB5050023D0FFF72DFF00904068C0B1F5
:1047D000FFF728FF0024019005E0019800EB84001A
:1047E000FFF77AFE641C00980088A042F5DC01A85F
:1047F000FFF782FF0098001DFFF76EFE0099002072
:1048000008806846FFF778FF2846FFF73BFE7CBD2F
:1048100038B5002430B1FFF705FF009004886846E2
:10482000FFF76AFF204638BD38B50D46002448B171
:10483000FFF7F8FE2946009000F05BF80446684652
:10484000FFF75AFF204638BD38B50D46002448B161
:10485000FFF7E8FE2946009000F05DF80446684640
:10486000FFF74AFF204638BD2DE9FE4398469146A2
:104870000D460024D0B3FFF7D5FE019007884668A7
:1048800001A8FFF739FFBD4230D27EB33046FFF7B3
:10489000C9FE009050F825406846FFF72DFF24B16F
:1048A0002046FFF7A9FE404511D04046FFF7CBFD5B
:1048B00004000CD03046FFF7B5FE00EB85050090F4
:1048C0002846FFF709FE68462C60FFF715FFB9F18F
:1048D000000F0BD054B12046FFF7A4FE42464946D4
:1048E0000290FBF78CFC02A8FFF706FF2046BDE80C
:1048F000FE8338B50D4601880024A94209D94068D5
:1049000038B1FFF78FFE009050F825406846FFF75A
:10491000F3FE204638BD10B50024FFF7EAFF10B1C2
:10492000FFF780FE0446204610BD000010B5136856
:1049300008290FD85C18146000222270064A04E08F
:1049400000F00F040009145D5C540C00A1F101019A
:10495000C9B2F5D110BD000074E9020870B5144663
:104960000D46064601F058F8204600F05FFF0300B0
:10497000174804EB840109D050F821004168806891
:10498000711A2A1A184601F037FE1CE000EB810468
:10499000A268B24201D0012200E00022E368AB42EB
:1049A00001D0012300E000231A430CD0236943B156
:1049B00050F82100816840686A1A311A184601F0DF
:1049C0005BFDC4E90265BDE8704002F07DBA0000FD
:1049D00008E7002010B5C2B2CBB2D21A02D5C2F19C
:1049E000000212B293B2C0F30722C1F3072403FB03
:1049F00003F3121B01D5524212B2000C92B2A0EB8B
:104A0000114002FB023200B2002801DA404200B23B
:104A100080B200FB002010BD10B50021084600F058
:104A2000B3FF40F6FF725042BDE810401346014606
:104A3000AFF300802DE9FC411C4615460E460746A3
:104A400000F0EAFF042004F0A3FC80461248C0688E
:104A5000C16C006D0F4406440D440444ADF8007071
:104A6000ADF80450ADF80260ADF8064068460DF0B0
:104A700091F907E023462A463146384604F0CCF93E
:104A80000DF03CF90028F5D1404604F081FC02F01D
:104A90001BFABDE8FC8100001C010020B0F90630C3
:104AA000B0F90420B0F90210B0F90000FFF7C2BF5E
:104AB0002DE9F8431C00DDE9089816460F46054627
:104AC00002D10BF0CDFF044600962E6843464A46BD
:104AD00021462846B047060039D00BF0B6FF814684
:104AE000698A30460BF01DFB30460CF0D1FF48467A
:104AF0000CF0CEFF4FF000080CE000BFCDF80080B6
:104B000055F81CCF00231A4649462846E04700B313
:104B10000CF0BEFF7F1E002FF0DC1D2148460CF07C
:104B200078FD601C12D000F077FF0BF0DDFF30B194
:104B3000FFF7FAFD8469B44201D02000F8D1B442F5
:104B400002D030460CF09EFE02F0BEF93046BDE8C1
:104B5000F88330460BF06EFE0020F8E72DE9F041B7
:104B60001C4616460D460746022B02DB0020BDE818
:104B7000F0811C20FFF7CCFC0028F8D00DB10561B6
:104B80000AE0094A52F8241009B905E011460A68FA
:104B9000002AFBD1096901618461868200210160DC
:104BA0004160C0E90217E2E74001002070B51D46F0
:104BB000FFF7D4FF040001D000F00EF8E0680068B1
:104BC00020B90348006800EB85008465204670BD6D
:104BD00028010020FFF774BC70B590B38269022AE7
:104BE00030DA1C4C54F8221019B944F822002FE096
:104BF00019464B68002BFBD106E0CB68C5681B68E3
:104C00002D68AB4203DD09680029F6D11AE0C1B175
:104C1000CB68C6681B683668B3420CD1838A012B07
:104C200005D008E01946DB681B68AB4203DB0B6864
:104C3000002BF7D129B14B6833B118604A68426044
:104C400004E0FFE7012070BD44F8220048600160E5
:104C5000002070BD4001002010B503E00468FFF79C
:104C6000BBFF20460028F9D110BD17F0DBBC0000C7
:104C70002DE9F0410026DFF834800D4F354600BFA6
:104C800058F8254009E0E0680068385C20B120460B
:104C900017F0C8FC266026462468002CF3D16D1C52
:104CA000022DEDDB3046BDE8F08100004001002020
:104CB00090920208022801DB00207047054A52F852
:104CC000200004E0C26812688A42F6D0006800281A
:104CD000F8D1704740010020022801DB0020704716
:104CE000054951F8200004E0C16809680029F6D0A0
:104CF00000680028F8D1704740010020F8B516463A
:104D00000F4605004FF0000414D00C20FFF79BFB6A
:104D100004000FD000F080FE2046FFF783FC064918
:104D20000090C0E90015078146816846FFF7E4FC62
:104D300002F0CAF82046F8BDFCD70208F8B50746CD
:104D400015460E460C20FFF77EFB04000FD000F046
:104D500063FE2046FFF766FC06490090C0E9001795
:104D6000068145816846FFF7C7FC02F0ADF8204692
:104D7000F8BD00001CE902082DE9F8431D4616465F
:104D8000884604000CD0FFF74DFC009000680768CF
:104D90006846FFF7B1FC2B46324641462046B847ED
:104DA000BDE8F88338B504004FF000000AD0204673
:104DB000FFF738FC0090006845686846FFF79CFCE8
:104DC0002046A84738BD38B504004FF000000AD08F
:104DD0002046FFF727FC0090006885686846FFF7CB
:104DE0008BFC2046A84738BD2DE9F041044602F06F
:104DF0008DF906191EE000BF00F00AFC052F00DD4A
:104E0000052700F009FE11480568FFF703FC2C0098
:104E100017D000BF02F058F8641EFBD1384602F0EC
:104E200063F91DB100F0F8FD6D1EFBD1FFF75CFCCE
:104E300002F04AF802F06AF9371A002FDCDCBDE80C
:104E4000F081384602F050F9F0E70000E807002052
:104E50002DE9FC4706005FD000F0DEFD00F0FEFC0F
:104E60003C4C81462068B0F9228000F057FD216853
:104E700007468A8CD01B888441E000BF47F6FF714B
:104E8000304602F0A3FF82460146304602F074FF2E
:104E90002168054691F82C0000F00300012841D05C
:104EA00002283BD000204A8C101A4884ADF800003C
:104EB0006A1E1044ADF80400888CADF80200A9F118
:104EC00001010844ADF806006A465146304602F03A
:104ED00063FB2168BDF8020088845146304601F02A
:104EE000CFFE064430780A281ED00D281CD0BDF80D
:104EF0000000216828444884307818B1761C307846
:104F00000028BBD12068818C39448184818D21F0B7
:104F10000301818501F0D8FFBDE8FC8705EBD57062
:104F20004010C0E72846BEE7206890F82C1001F03A
:104F3000030101290BD0022909D0018C4184317869
:104F40000A29D9D1828C02EB09018184D4E7A0F827
:104F50002280F4E72801002070B514460D4606466D
:104F600000F05AFD05480068458484843046FFF708
:104F70006FFFBDE8704001F0A7BF000028010020CE
:104F80002DE9F04107460A4815460E460068B0F97B
:104F90002C0040F0020001F07BFB04462A4631461B
:104FA0003846FFF7D9FF2046BDE8F04101F070BB5D
:104FB0002801002047F6FF7300F042B82DE9FF47B3
:104FC0001F460C9E90460D46814686B300240094F1
:104FD000019400F021FD9DB128680090174A69688E
:104FE00001911060516028460CF0F8FC040007D0D5
:104FF0000246294602A802F056FF02A80CF0EEFC79
:10500000304617F031F905467168684688473B46D7
:1050100042466946484602F017FB20460CF0DEFC8B
:10502000284617F021F901F04FFFBDE8FF87FFE7A1
:1050300004B0BDE8F04700F003B80000940700207A
:105040002DE9FC411F4690460D4606004FF0000436
:105050001AD000F0E1FC65B128460CF0BFFC04005A
:1050600007D002462946684602F01DFF68460CF04C
:10507000B5FC3B4642462946304602F0E5FA20465A
:105080000CF0ACFC01F020FFBDE8FC812DE9FF4FE6
:1050900085B090468A4607007DD000F0BDFCDAF866
:1050A0000040DAF8046021B230B2401A401C02908D
:1050B00000F0D4FB054618F00C0F1ED03846089AB5
:1050C000029901F00BFF08F00C01042904D0082913
:1050D00002D00C2911D104E0311400FB1510401C42
:1050E00009E02114C1EB264200FB1520401C00EB17
:1050F000D07001EB600060F31F44504601F043FAAA
:10510000A5F1010B04903846089A029903F03AF889
:1051100003904FEA244909EB0B0060F31F46CDE9E9
:1051200000463846039902F027FE18F003010ED01E
:1051300001292AD002290ED1BAF90420BAF90010A7
:10514000521A101A00EBD07001EB600001E0BAF8BF
:105150000000ADF800006A463846039902F01CFAD8
:105160003846089A029903F003F8074409EB050052
:1051700060F31F4438780028C5D1049801F003FA81
:1051800009B0BDE8F04F01F09FBEBAF80410081A4C
:10519000401CDEE7FFE709B0BDE8F08F7CB51446A0
:1051A0000D46064600F038FC11480068C16C006DE1
:1051B0000D4404443188681E0844ADF80400ADF87D
:1051C00000507188601E0844ADF80600ADF802403A
:1051D00068460CF0DFFD06E0224629463046FEF721
:1051E00047FA0CF08BFD0028F6D101F06DFE7CBD76
:1051F000280100201CB50A460146684602F06CFFF3
:1052000000F00AFC2548BDF80010006830F84C2F6B
:105210001144ADF80010BDF8021082881144ADF8B9
:105220000210BDF8041002881144ADF80410BDF856
:10523000061080880844ADF8060068460CF0AAFD08
:1052400027E000BFBDF900400BE000BFBDF9021030
:10525000204603F083FDBDF90610204603F07EFDD5
:10526000A41CBDF90400A042F0DABDF902400AE036
:10527000BDF90000214603F071FDBDF9040021468F
:1052800003F06CFDA41CBDF90600A042F0DA0CF09E
:1052900035FD0028D6D101F017FE1CBD28010020E5
:1052A0002DE9F04F87B09B46DDE9109892460C46F9
:1052B000054600F0B1FB16480168C86C096D471936
:1052C0000E1900EB0A0501EB0B04ADF81070ADF8F8
:1052D0001450ADF81260ADF8164004A80CF05AFD59
:1052E00088B1DFF830B04FF0000ACDE90098CDE981
:1052F00002BA2B4622463946304610F0D6FE0CF054
:10530000FDFC0028F1D101F0DFFD07B0BDE8F08F12
:1053100028010020C58D00082DE9F04F87B09B467D
:10532000DDE9109892460C46054600F075FB1648DC
:105330000168C86C096D47190E1900EB0A0501EBED
:105340000B04ADF81070ADF81450ADF81260ADF864
:10535000164004A80CF01EFD88B1DFF830B04FF005
:10536000010ACDE90098CDE902BA23462A46314622
:10537000384610F09AFE0CF0C1FC0028F1D101F083
:10538000A3FD07B0BDE8F08F28010020058D0008BF
:105390002DE9FC4114460D46064600F03DFB114F39
:1053A0003968C86C096D054404440E44ADF80050DA
:1053B000ADF80440ADF80260ADF8066068460CF048
:1053C000E9FC08E0386822463146C06E036828468A
:1053D00098470CF093FC0028F4D101F075FDBDE86E
:1053E000FC810000280100202DE9F0411C461546F3
:1053F0000E46074600F010FB0C480168C86C096DAA
:10540000074405440E440C4400200CF0C3FC07E0A4
:1054100023462A4631463846FEF778F90CF06EFCF2
:105420000028F5D1BDE8F04101F04EBD2801002073
:105430007CB50C46064600F0EFFA0F4D2868C16CAB
:10544000006D0E440444ADF80460ADF80060ADF8A2
:105450000640ADF8024068460CF09CFC07E0286866
:105460002146C06E4268304690470CF047FC002849
:10547000F5D101F029FD7CBD280100202DE9FC417A
:105480001C4616460D46074600F0C6FA1A48016843
:10549000087ECA6C096D401E17440D440C44391A2D
:1054A0001644ADF800103118ADF80410291A204444
:1054B000ADF80600ADF8021068460CF06BFC15E084
:1054C00032462946384603F01DFC3246214638460E
:1054D00003F018FC621E691C384603F073FC621E60
:1054E000691C304603F06EFC0CF008FC0028E7D184
:1054F00001F0EAFCBDE8FC812801002070B58EB007
:1055000015460E46044600F087FA214606A802F02A
:10551000C0FDBDF81A30642B0CD1002000900AABFE
:1055200001AA214606A802F019F82A46314601A828
:10553000FFF734FE01F0C8FC0EB070BD7CB5144618
:105540000D46064600F068FA0F480068C16C006D11
:105550000E4405440444ADF80060ADF80460ADF8B5
:105560000250ADF8064068460CF014FC06E02246F6
:105570002946304603F026FC0CF0C0FB0028F6D18B
:1055800001F0A2FC7CBD00002801002070B50C4693
:10559000054600F055F910B10121C0E9001400F0F2
:1055A0003BFA28460CF02CFBBDE8704001F08CBCA7
:1055B00010B5044601F09EFD04490968002903D096
:1055C0002046BDE81040084710BD00009C070020A1
:1055D00030B59DB00D460446CDF870D06F22002145
:1055E000684602F001FE6422214668460DF052FD35
:1055F0006846FAF748FE1C991CAA08441C9008212A
:10560000284601F0C9FD6846FFF7D2FF1DB030BD46
:1056100010B5002400E0012400F004F80028FAD1BD
:10562000204610BD064810B50068002410B1804720
:1056300000B101240BF07EF900B10124204610BD19
:105640004801002070B516460C46054600F0E4F906
:105650000B480068C16C006D0D44044400200CF040
:1056600099FB06E0324621462846FEF7D3F90CF0B6
:1056700045FB0028F6D1BDE8704001F025BC0000D4
:10568000280100202DE9FC411C4615460E46074620
:1056900000F0C2F910480068C16C006D0F44064468
:1056A0000D440444ADF80070ADF80450ADF802604C
:1056B000ADF8064068460CF06DFB07E023462A462D
:1056C0003146384603F0A8FB0CF018FB0028F5D152
:1056D00001F0FAFBBDE8FC8128010020B0F906309A
:1056E000B0F90420B0F90210B0F90000FFF7CABF0A
:1056F00008B50B46002805D0009281888268C088D2
:1057000000F001F808BD10B50828029C30D008DC74
:1057100004FB01F401280AD0022813D0042804D184
:105720001CE0102828D020282CD0002010BD04EB2D
:10573000D30003F00701105CC1F10701C84000F07D
:10574000010010BD04EB93000621105C01EA430147
:10575000C1F10601C84000F0030010BD04EB530086
:10576000D907105C02D000F00F0010BD000910BD79
:1057700004FB0130105C10BD481004FB003032F80F
:10578000100010BD881004FB003052F8200010BD3E
:10579000034951F82000C1688A6A082110470000B7
:1057A0004001002010B500F037F903F065FB03F06D
:1057B0003FFC044601F088FB204610BD10B50446AE
:1057C00000F02AF9054800210068C06942682046B7
:1057D0009047044601F078FB204610BD28010020C8
:1057E00070B50C46054600F017F9064821460068DA
:1057F000C069426828469047044601F065FB204690
:1058000070BD000028010020002801D00BF0FAB87C
:10581000704710B500F000F903F036FB03F008FC08
:10582000044601F051FB204610BD00000021022873
:1058300002D2024951F8201008467047B4070020F0
:105840001FB500210191029103912A21009169461F
:105850000BF0D0FE039804B010BD000010B500F0AE
:10586000DBF804480068C069447E01F02DFB204647
:1058700010BD00002801002070B50D46044600F060
:10588000CBF814B909480068C46929460834207E59
:10589000A870A07E2871607EE87054F80829204620
:1058A0009047BDE8704001F00FBB000028010020C8
:1058B00010B500F0B1F802F055FA044601F004FB0F
:1058C000204610BD70B514460D46064600F0A4F8FB
:1058D00022462946304603F049FB10B100202860DB
:1058E0002060BDE8704001F0EFBA70B50C46054687
:1058F00000F092F82146284602F092FABDE8704086
:1059000001F0E2BA10B5044602F07CFA01462046E6
:10591000BDE8104002F030BA01F0F8BB10B5002429
:1059200000F07AF80B48006890F82C1001F00C0198
:10593000042904D0082906D00C2907D103E0C06946
:10594000047E641E02E0C069007E440801F0BCFAD7
:10595000204610BD28010020417EC07E484370478C
:10596000017EC07E48437047024951F8200000691B
:105970000068704740010020024951F8200000698A
:10598000406870474001002070B50D46044600F0A5
:1059900043F8204612F0B0FE0446284612F0B4FE4A
:1059A000044301F091FA204670BD0000144810B580
:1059B000016821F001010160124801218160124952
:1059C000016000681149884200D0FEE701F0ACFD9B
:1059D0000F492E20087001F09FFB0E4812F09AFF2D
:1059E000FEF7E4FC19F032F804460021084600F006
:1059F00021FE0BF0ADFBFEF7B5FC204610BD00000C
:105A0000002000E000300240C2A507F4CDB5E8B5A3
:105A10001C01002064E5002070B51F4CE06820B137
:105A200001F06CFB6168884204D001F09FFB01F03B
:105A300065FB6060E068401CE060012825D100251E
:105A40000AE000BF01F05AFB216901EBC5110968AA
:105A5000814205D0D1B16D1CA0688542F2DB0025E2
:105A60002068854211D000280EDBFFF701F922687B
:105A7000216901EBC212D067084A01EBC510011D74
:105A80001160C06FFFF7E8F8256070BD216901EB78
:105A9000C5110860E4E70000DC07002028010020B1
:105AA0001CB5040004D10E480068046E002C16D00A
:105AB000FFF7B2FF2046FEF7B5FD00904469684647
:105AC000FEF71AFE4CB12046FEF7ACFD019081684E
:105AD0008968884701A8FEF70FFE01F0F5F91CBDA3
