:020000040800F2
:100000000807002045010008090F00080B0F000831
:100010000F0F0008130F0008170F00080000000062
:100020000000000000000000000000001B0F00089E
:100030001D0F0008000000001F0F0008210F00081E
:100040005F0100085F0100085F010008230F00083E
:100050005F0100085F0100085F0100085F01000800
:100060005F0100085F0100085F0100085F010008F0
:100070005F0100085F0100085F0100085F010008E0
:100080005F0100085F0100085F0100085F010008D0
:100090005F0100085F0100085F0100085F010008C0
:1000A0005F0100085F0100085F0100085F010008B0
:1000B0005F0100085F0100085F0100085F010008A0
:1000C0005F0100085F0100085F0100085F01000890
:1000D0005F0100085F0100085F0100085F01000880
:1000E0005F0100085F0100085F0100085F01000870
:1000F0005F0100085F0100085F0100085F01000860
:100100005F0100085F0100085F0100085F0100084F
:100110005F0100085F0100085F0100085F0100083F
:100120005F0100085F0100085F0100085F0100082F
:10013000DFF80CD003F04EFC0048004789090008A6
:10014000080700200648804706480047FEE7FEE70C
:10015000FEE7FEE7FEE7FEE7FEE7FEE7FEE7FEE777
:1001600047020008310100080CB500200190009002
:100170004848006840F480304649086000BF454860
:10018000006800F4003000900198401C0190009835
:1001900018B90198B0F5A06FF1D13E48006800F49D
:1001A000003010B10120009001E000200090009884
:1001B000012843D13848006840F0100036490860F3
:1001C0000846006820F0030008600846006840F018
:1001D000020008602F4840682E4948600846406881
:1001E00048600846406840F48060486008464068BF
:1001F00020F47C1048600846406840F4E8104860ED
:100200000846006840F08070086000BF2148006820
:1002100000F000700028F9D01E48406820F003006C
:100220001C4948600846406840F00200486000BF32
:100230001848406800F00C000828F9D10CBD10B532
:10024000FFF792FF10BD10B51248006840F00100A2
:100250001049086008464068104908400D49486048
:10026000084600680E4908400A49086008460068C8
:1002700020F4802008600846406820F4FE004860B2
:100280004FF41F008860FFF7DAFF4FF00060054968
:10029000086010BD00100240002002400000FFF87E
:1002A000FFFFF6FE08ED00E01B4901431B4A116009
:1002B000704770B5002100230F22C47804B3174C97
:1002C000246804F4E064C4F5E064210AC1F1040385
:1002D000CA40447804FA03F18478144021430901A8
:1002E0000F4C0678A155047804F01F050124AC409A
:1002F00005786D11AD0005F1E025C5F8004109E074
:10030000047804F01F050124AC40064D06787611F0
:1003100045F8264070BD00000000FA050CED00E035
:1003200000E400E080E100E010B5012000F0F8F901
:10033000002000F0F5F910BD08B5002200920A4A2D
:100340000092009A02440092009A116008BD08B51C
:100350000146002000900448009000980844009056
:100360000098008808BD0000006C0040D0E9011230
:100370001143C26811430269114342691143826902
:100380001143C2691143026A1143426A1143826AEE
:100390001143C26A1143026B114302689200A2F139
:1003A000C0421160816808290BD101688900A1F160
:1003B000C041096841F0400201688900A1F1C041D3
:1003C0000A60416B0968426B526841EA0211426B54
:1003D000926841EA0221426B928941EA0241426BF2
:1003E000128A41EA0251426B127D41EA0261426B7C
:1003F000926911430268521C9200A2F1C04211603E
:10040000C16AB1F5804F1BD1816B0968826B52685C
:1004100041EA0211826B926841EA0221826B128AE0
:1004200041EA0251826B127D41EA0261826B92695C
:10043000114302689200A2F1C042C2F8041107E021
:100440006FF0704201688900A1F1C041C1F8042138
:10045000704751B18200A2F1C042126842F001031C
:100460008200A2F1C042136009E08200A2F1C04202
:100470001268034B1A408300A3F1C0431A6070470F
:10048000FEFF0F002DE9F041024600250026002066
:1004900000230024002791F803C00CF00F0591F809
:1004A00003C00CF0100CBCF1000F03D091F802C097
:1004B0004CEA050591F800C0BCF1000F31D014687A
:1004C00000202BE04FF0010C0CFA00F3B1F800C053
:1004D0000CEA03069E4220D183004FF00F0C0CFA69
:1004E00003F7BC4305FA03FC4CEA040491F803C08B
:1004F000BCF1280F06D14FF0010C0CFA00FCC2F839
:1005000014C00AE091F803C0BCF1480F05D14FF0C8
:10051000010C0CFA00FCC2F810C0401C0828D1D312
:100520001460B1F800C0BCF1FF0F34DD5468002046
:100530002EE000F1080C4FF0010808FA0CF3B1F8B6
:1005400000C00CEA03069E4221D183004FF00F0C3D
:100550000CFA03F7BC4305FA03FC4CEA040491F8D7
:1005600003C0BCF1280F05D100F1080C08FA0CF803
:10057000C2F8148091F803C0BCF1480F07D100F114
:10058000080C4FF0010808FA0CF8C2F81080401C63
:100590000828CED35460BDE8F0810246002093685D
:1005A0000B400BB1012000E0002070470161704753
:1005B00041617047014908627047000000000E4227
:1005C00010B501460022002300204A11012A02D161
:1005D000594C236806E0022A02D1574C236A01E0F5
:1005E000554C636A01F01F02012494401C400CB179
:1005F000012000E0002010BD5049086070474E49BE
:10060000096A01434C4A116270474C4944390860F9
:10061000704730B50021002200240023464D6D684C
:1006200005F00C0121B1042905D0082923D105E0EA
:10063000434D056022E0424D05601FE03E4D6D6870
:1006400005F470123C4D6D6805F48034022505EB0D
:1006500092421CB93B4D554305600BE0364D6D6829
:1006600005F400351DB1374D5543056002E0344DAA
:100670005543056002E0324D056000BF00BF2E4DBE
:100680006D6805F0F00109092F4D6B5C0568DD40D0
:100690004560294D6D6805F4E061090A2A4D6B5CDF
:1006A0004568DD408560244D6D6805F46051C90AD8
:1006B000254D6B5C4568DD40C5601F4D6D6805F4D8
:1006C0004041890B214D6B5CC568B5FBF3F50561B5
:1006D00030BD29B1184A52690243174B5A6104E0F0
:1006E000154A52698243144B5A61704729B1124A24
:1006F00092690243104B9A6104E00F4A9269824367
:100700000D4B9A61704729B10B4AD26902430A4BDB
:10071000DA6104E0084AD2698243074BDA61704724
:1007200006494039086070470348406A40F08070CD
:1007300001494862704700000010024080044242B4
:1007400000127A0000093D0014000020240000205F
:1007500029B1414A128802433F4B1A8004E03E4AC5
:10076000128882433C4B1A8070473B48001D00882A
:1007700040F010003849091D088070473648001DB8
:1007800000884FF6EF7108403349091D0880704713
:10079000002131481C300188001F008841EA0040D8
:1007A000704700B50246FFF7E0FF100C2A491831E8
:1007B0000880091D0A80FFF7E1FF00BD00B5024671
:1007C000FFF7D3FFC2F30340234908310880091D16
:1007D0000A80FFF7D3FF00BD00B50246FFF7C5FF53
:1007E000100C1D4920310880091D0A80FFF7C6FF43
:1007F00000BD00BF1848001D008800F02000002840
:10080000F8D070471448001D00884FF6F771084073
:100810001149091D088000BF0F48001D008800F025
:1008200008000028F8D07047014600200A4A121D2F
:1008300012880A40D0B2084A12880A4012B108B1A0
:10084000012000E0002070470349091D0988814309
:10085000014A121D11807047002800402DE9F04721
:1008600086B005460E460024A24600BFA1460027DA
:10087000B08900B100BF2F462C8A4CF6FF700440AF
:10088000F08804432C82AC894EF6F3100440B08803
:1008900031890843718908430443AC81AC8A4FF61F
:1008A000FF400440B0890443AC8201A8FFF7B1FEC9
:1008B0003448874202D1DDF810A001E0DDF80CA039
:1008C000A88900F4004040B10AEBCA0000EB0A100E
:1008D00031684900B0FBF1F807E00AEBCA0000EB11
:1008E0000A1031688900B0FBF1F86420B8FBF0F021
:1008F00004012009642101FB1089A88900F400404B
:1009000040B1322000EBC900B0FBF1F000F007006D
:10091000044308E0322000EB09106421B0FBF1F041
:1009200000F00F0004432C8106B0BDE8F08721B130
:10093000828942F40052828104E082894DF6FF737D
:100940001A4082817047C1F30802828070470146D5
:100950008888C0F30800704702460020B1F5007F88
:1009600000D100BF13880B400BB1012000E0002034
:10097000704701F40072B2F5007F00D100BFCA4396
:1009800002807047003801408AB002F004FC02F097
:100990000AF9FE4802F084FB00214FF6FF7002F0D6
:1009A00085FBFB480388FB4802880021084602F0CB
:1009B00055F902F078FBC488F7A1204602F014FB39
:1009C00001F000FE02F084FB02F0B6FB00F0F6FE40
:1009D000F74800F048FFF74800F04BFEA0F5E14073
:1009E000F549086008460068FFF7F6FE87E2F3481D
:1009F0000068012820D1FFF7CBFEF1490860EC49DF
:100A0000EF48006801F057F80020EC49086008A89A
:100A100002F011FC01280CD19DF8230000909DF8F4
:100A200022309DF821209DF82010E6A003F01EFA48
:100A300002E0EEA003F01AFA2021F148FFF78CFF44
:100A400001287CD1DA484069DA494861D848006910
:100A50000861D748C068C860EA49EBA002F08EFC84
:100A600006E0EAA003F002FAE649E7A002F086FCFD
:100A7000E44800680028F4DBE248006842F21071A4
:100A80008842EEDCDF480168E9A003F0EFF9DD48B9
:100A900000684FF4616190FBF1F201FB12003C2110
:100AA00090FBF1F201FB1200C14909680844C149F9
:100AB0000860D44800684FF4616190FBF1F201FBDB
:100AC00012003C2190FBF1F0B94949680844B9494A
:100AD0004860CC4800684FF4616190FBF1F0B44984
:100AE00089680844B3498860084600683C2812DBDE
:100AF000084600683C2190FBF1F0AE494968084483
:100B0000AC494860084600683C2190FBF1F201FBCB
:100B10001200A8490860A74840683C2814DBA54893
:100B200040683C2190FBF1F0A24989680844A14942
:100B30008860084640683C2190FBF1F200E030E01C
:100B400001FB12009B4948609A484169BCA003F030
:100B50008DF998480169ACA003F088F99548C168FF
:100B6000A9A003F083F993488168A7A003F07EF958
:100B700090484168A4A003F079F98E480168B4A0B8
:100B800003F074F98B4800F074FDA0F5E1408A4948
:100B9000086008460068FFF71FFE20219848FFF70D
:100BA000E8FE0121AC4802F0AEFA01287ED100BF78
:100BB000AAA003F05BF9ACA003F058F9B0A003F0D1
:100BC00055F9B64990A002F0D9FBB4480068012855
:100BD0000BD101A800F08DFE01A800F030FE4AF212
:100BE000A5510420FFF7A8FBB7E0AC480068022835
:100BF0007ED1AB4803F03AF983E06D4840696D4916
:100C000048616B48006908616948C068C860A5A070
:100C100003F02CF97B497CA002F0B0FB7948016815
:100C200084A003F023F977480068002805DB7548A5
:100C3000006842F21071884203DDA1A003F016F9AA
:100C40005FE0704800684FF4616190FBF1F201FBD6
:100C500012003C2190FBF1F201FB1200544909689B
:100C6000084454490860674800684FF4616190FB8C
:100C7000F1F201FB12003C2190FBF1F04C49496874
:100C800008444C4948605F4800684FF4616190FB3C
:100C9000F1F0474989680844464988600846006879
:100CA0003C2814DB084600683C2100E057E090FB3C
:100CB000F1F201FB12003F490860084600683C2140
:100CC00090FBF1F03B49496808443A49486039488B
:100CD00040683C2814DB374840683C2190FBF1F227
:100CE00001FB120033494860084640683C2100E09F
:100CF00032E090FBF1F02F49896808442D49886063
:100D000000E07AE700BF2B4841693FA003F0AEF84E
:100D1000284801693CA003F0A9F82648C1683AA018
:100D200003F0A4F82348816837A003F09FF8214816
:100D3000416835A003F09AF81E48016832A003F01C
:100D400095F81C4800F095FCA0F5E1401A490860B0
:100D500008460068FFF740FD00BF00BF00BF16480F
:100D6000006817490968884202D101205D4908607E
:100D70005C480068012803D101023748FFF716FCE0
:100D80004FF40051584802F0BEF9AFE0DC020020F9
:100D9000CE020020CC020020202020202020202075
:100DA0004C434420616C61726D20636C6F636B0017
:100DB0003C000020580000203400002028020020C1
:100DC00038000020CAAAB6C8CEAA25642E25642001
:100DD000A3A5524820A3ACCEC2B6C8CEAA20256493
:100DE0002E2564A1E6200D0A000000005265616412
:100DF000204448543131204552524F52210D0A00AF
:100E00000038014030000020256400000A20796F7E
:100E10007520656E746572206572726F20706C65E6
:100E20006173652072657772697465210000000046
:100E3000736574202564207365636F6E64730A00A4
:100E4000636C6F636B74696D65203D2025640000E1
:100E500025640D0A00000000000801400D0A202052
:100E6000C7EBCAE4C8EB3A000D0A2020312E7365A7
:100E70007420636C6F636B2074696D650000000003
:100E80000D0A2020322E73657420616C61726D2012
:100E9000636C6F636B2074696D652000280000200F
:100EA000688800080D0A2073657420616C61726D9A
:100EB000636C6F636B2074696D653A2000000000FD
:100EC0000D0A20796F7520656E74657220657272E7
:100ED0006F20706C656173652072657772697465E7
:100EE000210000002C02002000100140012806D142
:100EF00001020348FFF75CFB00200249086076E529
:100F0000000801402C020020704700BFFEE700BF30
:100F1000FEE700BFFEE700BFFEE77047704770477F
:100F2000704710B50120FFF77FFC38B10120FFF7B3
:100F30008BFC012007490860FFF75BFC0220FFF7EC
:100F400073FC10B10120044908600320FFF77CFC0A
:100F500010BD0000280200202C02002002460E2AAC
:100F600070D2DFE802F086071019222B353F495373
:100F70005D67727CF748405C00F0080008B900200B
:100F800070470120FCE7F348405C00F0040008B91A
:100F90000020F5E70120F3E7EE48405C00F0020096
:100FA00008B90020ECE70120EAE7EA48405C00F0DD
:100FB000010008B90020E3E70120E1E7E54B481C08
:100FC000185C00F0800008B90020D9E70120D7E7BD
:100FD000E04B481C185C00F0400008B90020CFE747
:100FE0000120CDE7DB4B481C185C00F0200008B95D
:100FF0000020C5E70120C3E7D64B481C185C00F071
:10100000100008B90020BBE70120B9E7D14B481C0C
:10101000185C00F0080008B90020B1E70120AFE734
:10102000CC4B481C185C00F0040008B90020A7E76E
:101030000120A5E7C74B481C185C00F0020010B95E
:1010400000209DE715E001209AE7C24B481C185C80
:1010500000F0010008B9002092E7012090E7BD4BA5
:10106000881C185C00F0800008B9002088E7012087
:1010700086E7002084E72DE9FF4F83B00C461F462A
:101080006421039890FBF1F0C0B20190039890FBAB
:10109000F1F201FB1200C5B20198132806D00198A5
:1010A000142803D0002007B0BDE8F08F0198142861
:1010B00006D105F1630000EB40001FFA80F904E05F
:1010C000681E00EB40001FFA80F9A24909F10200F6
:1010D000085C00F0600A4FEA6A1A09F10200085C35
:1010E00000F01F0BBAF1010F04D1ABF1010000F0C9
:1010F000FF0803E00BF11E0000F0FF080A2C07DADE
:10110000601E9549095C05980844401E86B208E0B7
:10111000A4F10A00914931F8101005980844401EC6
:1011200086B2022C08DDE91705EB91718910A5EB59
:10113000810109B9701C86B246453EDBA6EB08006A
:1011400086B20124012002900020009049460298B6
:10115000FFF704FF10B94FF01D0A01E04FF01E0A1F
:101160007C4911F80900C11700EB11714FEA211BEE
:101170001DE0A6EB0A0086B20298401CC0B20290A5
:101180005C4508D10098C043C0B20090009820B9D7
:10119000601CC4B201E0601CC4B249460298FFF76B
:1011A000DDFE10B94FF01D0A01E04FF01E0A564552
:1011B000DFDA701CC0B205904FE0A8EB060000F02B
:1011C000FF081DB963251320019001E0681EC5B218
:1011D000A9F103001FFA80F90C245E4911F80900F7
:1011E000C11700EB11714FEA211BBBF1000F02D1B7
:1011F0000C20029001E00D20029000200090494652
:101200000298FFF7ABFE10B94FF01D0A01E04FF056
:101210001E0A1BE0A8EB0A0000F0FF080298401E1F
:10122000C0B20290009808B9601EC4B25C4503D1F8
:101230000098C043C0B2009049460298FFF78EFE66
:1012400010B94FF01D0A01E04FF01E0AD045E1DC55
:10125000AAEB0800401CC0B20590019807F8010BEA
:1012600007F8015B07F8014B0598387001201AE771
:1012700010B50A46B0F5F86F09DBA0F5F86398B22F
:101280003C2390FBF3F403FB1403D9B20AE0C0F54E
:10129000F86398B23C2390FBF3F403FB1403C3F10F
:1012A0003C03D9B2117010BD10B5002305E011F850
:1012B000014B00F8014B5C1CA3B29342F7DB10BD5D
:1012C0002DE9FC4105460E4617461C460F2224A177
:1012D0002046FFF7E9FF01AB3A4631462846FFF7C3
:1012E000CAFE08B9BDE8FC819DF805209DF80410F0
:1012F00001EBC10303EB011102EB81006946FFF72B
:10130000B7FF9DF800000A2190FBF1F201FB1200EB
:10131000174951F82080022241462046FFF7C4FFBA
:101320009DF800000C2190FBF1F201FB1200114925
:1013300051F8208002224146A01CFFF7B5FF9DF81E
:10134000060001281AD102220BA1A01DFFF7ACFF55
:101350001EE00000484800084E4B0008584B0008AB
:10136000BCD7D7D3C4EAD5FDD4C2B3F5D2BB0000F5
:10137000D4000020FC000020D5FD00009DF80600F0
:10138000401E8C4A52F820100222A01DFFF78CFF4D
:101390009DF807000A280EDD9DF807000A2190FB42
:1013A000F1F0854951F820800222414604F10A00FB
:1013B000FFF77AFF05E0022280A104F10A00FFF79F
:1013C00073FF9DF80700401E0A2190FBF1F201FB1C
:1013D0001200784951F820800222414604F10C00A5
:1013E000FFF762FF00BF7DE72DE9F04104460D469F
:1013F000B4F5FA6F03DB40F60200844202DD002000
:10140000BDE8F0810DB10C2D01DD0020F8E7681E6C
:101410004006010E0F2A01DB481CC1B208464FEA04
:10142000E17C01EB5C7C4FEAEC08A4F5FA6C0CEB78
:101430004C0CC444DFF8888118F80C604FEAE17C5A
:1014400001EB5C7C4FEAEC0CA1EBCC0C06FA0CFC3B
:101450000CF080075B48405C187097B1012905D0FB
:101460000B2903D0122901D0152907D140F2FC70B5
:10147000844203DA1878401C187002E01878401E85
:1014800018700120BCE72DE9F8430546884614464C
:101490001E466B46224641462846FFF7A5FF10B977
:1014A0000020BDE8F883A8F101004006070E0F2CCC
:1014B00001DB781CC7B29DF80000844208D1424885
:1014C00050F8271005223046FFF7EEFE0120E8E72E
:1014D0000F223EA13046FFF7E7FE9DF80000844250
:1014E0000BDA394850F827100422B01CFFF7DCFE55
:1014F0009DF80000001BC4B24DE0781C172801DDE8
:101500000020CEE7304A781C52F820100422B01C8C
:10151000FFF7CAFE0F2C0ADA6B460F224146284617
:10152000FFF762FF9DF80000001BC4B233E0A8F192
:1015300001002A4911F80090B8F1020F17D1E917FC
:1015400005EB91718910A5EB810181B9642195FBAF
:10155000F1F201FB125131B94FF4C87195FBF1F270
:1015600001FB125119B909F1010000F0FF0908F15E
:101570000100C0B280460D2801D14FF001086B4632
:10158000012241462846FFF72FFFA9EB04009DF8F2
:1015900000100844C4B20A2094FBF0F03030B0725E
:1015A0000A2094FBF0F100FB11403030F072012072
:1015B00077E700002C0100205C010020B3F500005B
:1015C0009D4A0008364B000874000020C0EBC1A201
:1015D000B6ACBBB9D3D03F3FCCEC00006A4B00089F
:1015E000F0B58DB004463022704901A801F0B4FE78
:1015F0006069451E642195FBF1F12846EA1705EB69
:101600009272C1EBA2014FF4C87295FBF2F28F18EF
:101610006069C11700EB91718910A0EB810191B94C
:101620006422616991FBF2F302FB131131B992005C
:10163000616991FBF2F302FB131121B921690229BF
:1016400001DD012600E0002640F26D1005FB00716F
:101650002069401E01AA52F820000844E1680844AD
:101660000644072096FBF0F100FB1160A0610DB06D
:10167000F0BD10B501460869801E0861002805DC30
:1016800008690C3008614869401E48616423486954
:1016900090FBF3F04A69D31702EB9373C0EBA300FE
:1016A0004FF4C87492FBF4F3034440F26F140869DA
:1016B00060430C2490FBF4F01844CB68034440F2E0
:1016C0006D1402FB04303A4BC01A00EB40008B68EB
:1016D00003EBC000C0EB00104B6803EB8000C0EBD5
:1016E00000100B6803EB800010BD2DE9F0410746A8
:1016F0000C463048B7FBF0F6B7FBF0F100FB117871
:101700004FF4616098FBF0F0A0604FF4616098FBCB
:10171000F0F100FB11803C2190FBF1F060604FF490
:10172000616098FBF0F100FB11803C2190FBF1F22D
:1017300001FB1200206040F2B27509E005F00300E1
:1017400010B94FF4B77001E040F26D10361A6D1CFD
:1017500005F0030010B94FF4B77001E040F26D10CE
:10176000B042EBDD65616069C11700EB91718910D2
:10177000A0EB810111B91D200F494860012505E04A
:10178000681E0D4951F82000361A6D1C681E0A4962
:1017900051F82000B042F3DD1C2048602561701C28
:1017A000E0602046FFF71CFFBDE8F081784B0008A1
:1017B0008BFA0A00805101006C01002008B54FF43B
:1017C000C060FEF771FD03208DF8000001208DF848
:1017D000010000208DF8020001208DF8030068460A
:1017E000FEF767FD08BD10B501214FF0C050FEF7B0
:1017F0008AFF0120FEF7DEFEFEF796FD0120FEF7D0
:10180000FBFE00BF6120FEF7DBFE0028FAD04FF49C
:101810000070FEF7F4FE0120FEF7F7FEFEF7F2FF80
:10182000FEF7E7FF01210320FEF792FFFEF7E1FF3D
:1018300049F63F40FEF7C2FFFEF7DBFF10BD70B573
:101840000446FFF7D0FFFEF7D4FF2046FFF7C8FE9F
:101850002046FFF70EFFA0F5E1452846FEF7A1FF61
:10186000FEF7C7FF70BD10B504460420FEF76FFDFC
:101870004AF2A55188420ED0EAA002F0F7FAF1A090
:1018800002F0F4FA2046FFF7DAFF4AF2A5510420ED
:10189000FEF752FD2AE001214FF0C050FEF733FF62
:1018A0000120FEF787FE0120FEF7A6FE00BF6120A3
:1018B000FEF786FE0028FAD07B20FEF781FE18B1E5
:1018C000E6A002F0D3FA06E07A20FEF779FE10B126
:1018D000EBA002F0CBFAF3A002F0C8FAFEF792FFF9
:1018E00001210320FEF734FFFEF783FFFEF71CFF04
:1018F00010BD38B50446002000900025F1A002F08C
:10190000B5FA00BFFD4802F0B1FA6946FCA001F04B
:1019100035FD40F2B2710098884204D340F2F6716E
:101920000098884204D9F7A0009902F09FFA06E0D7
:10193000FDA0009902F09AFA0098606100E0E1E7EA
:1019400000BF00BFFE4802F091FA6946ECA001F02A
:1019500015FD009810B100980C2804D9E9A0009951
:1019600002F084FA06E0F7A0009902F07FFA0098EE
:10197000206100E0E6E700BF20690D2832D2DFE8F1
:1019800000F0310714080F09100A0B110C120D009A
:1019900000BF00BF00BF00BF00BF00BF1F2521E088
:1019A00000BF00BF00BF1E251CE06069C11700EB2F
:1019B00091718910A0EB810191B96422616991FB59
:1019C000F2F302FB131131B99200616991FBF2F35A
:1019D00002FB131121B92169022901DD1D2500E057
:1019E0001C2500BF00BF00BF2946DC4802F03EFABC
:1019F0006946C3A001F0C2FC009810B10098A8424B
:101A000004D9C0A0009902F031FA06E0D4A00099F0
:101A100002F02CFA0098E06000E0E5E700BF00BFAC
:101A2000D54802F023FA6946B5A001F0A7FC00985A
:101A3000172804D9B3A0009902F018FA06E0CFA045
:101A4000009902F013FA0098A06000E0E8E700BFF8
:101A500000BFD04802F00AFA6946A9A001F08EFC46
:101A600000983B2804D9A7A0009902F0FFF906E0EE
:101A7000C9A0009902F0FAF90098606000E0E8E778
:101A800000BF00BFCA4802F0F1F969469CA001F00E
:101A900075FC00983B2804D99AA0009902F0E6F959
:101AA00006E0C4A0009902F0E1F90098206000E08F
:101AB000E8E700BF38BD13B5C2B0429800F5E14079
:101AC000409043994098FFF710FE4398806828B9EA
:101AD0004398406810B94398006818B1BB48006843
:101AE00000284AD04398007B0D904398007C0C90CE
:101AF0004398808A80B20EAB0B90DDE90C12FFF7A1
:101B0000BAFA9DF83B0000909DF83A000D909DF8C0
:101B100039000C909DF838000B900146ACA0DDE92F
:101B20000C2302F0A3F94398007B0D904398007CAE
:101B30000C904398808A80B20EAB0B90DDE90C12BA
:101B4000FFF7BEFB0EA9ABA002F090F94398007B13
:101B50000D904398007C0C904398808A80B20EAB25
:101B60000B90DDE90C12FFF78EFC18B10EA9A1A0B5
:101B700002F07CF900209549086043984069C01E36
:101B80000C2190FBF1F201FB12009F4951F820005B
:101B90000D904398006843994968439A9268439B23
:101BA0009B699A4C54F82330CDE90232CDE90410F8
:101BB0004398C06843990969CDE90010439840698A
:101BC0000C90024692480D9B429902F04FF94FF655
:101BD000FF7001F070FA8FA10EA8429A02F056F938
:101BE00001F061FAC0884004000C0EA90D9001F0CC
:101BF000FBF94398406902468CA10D900EA802F0B3
:101C000045F901F050FAC08800EB400101EB0010EB
:101C100080B20EA90D9001F0E7F943984069C01E0B
:101C20000C2105E10D0A0D0A20525443206E6F74F9
:101C30002079657420636F6E666967757265642EBE
:101C40002E2E2E000D0A0D0A2052544320636F6E73
:101C5000666967757265642E2E2E2E000D0A0D0AB8
:101C600020506F776572204F6E2052657365742027
:101C70006F636375727265642E2E2E2E0000000055
:101C80000D0A0D0A2045787465726E616C205265EC
:101C9000736574206F636375727265642E2E2E2EC9
:101CA000000000000D0A204E6F206E6565642074F0
:101CB0006F20636F6E666967757265205254432E9C
:101CC0002E2E2E000D0A3D3D3D3D3D3D3D3D3D3D11
:101CD0003D3D3D3D3D3D3D3D3D3D3D3D3D3D3DC9A8
:101CE000E8D6C3CAB1BCE43D3D3D3D3D3D3D3D3D33
:101CF0003D3D3D3D3D3D3D3D3D000000D48A000859
:101D0000256400000D0A20C4FACAE4C8EBB5C4CAB1
:101D1000FDD7D6CAC73A2564A3ACB2BBB7FBBACFCE
:101D2000D2AAC7F3000000000A0D2020C4EAB7DDE4
:101D3000B1BBC9E8D6C3CEAA3A2025640A0D00007B
:101D40004C8A00080A0D2020D4C2B7DDB1BBC9E817
:101D5000D6C3CEAA3A2025640A0D0000A48B000841
:101D60000A0D2020C8D5C6DAB1BBC9E8D6C3CEAAB1
:101D70003A2025640A0D0000908A00080A0D2020F0
:101D8000CAB1D6D3B1BBC9E8D6C3CEAA3A2025641E
:101D90000A0D0000608B00080A0D2020B7D6D6D3AC
:101DA000B1BBC9E8D6C3CEAA3A2025640A0D00000B
:101DB0001C8B00080A0D2020C3EBD6D3B1BBC9E8A9
:101DC000D6C3CEAA3A2025640A0D0000C80200201E
:101DD0000D0A20BDF1CCECD0C2C0FAA3BA25302E3A
:101DE000326425302E32642C25302E32642C25307E
:101DF0002E3264000D0A20BDF1CCECC5A9C0FAA3B7
:101E0000BA25730D0A0000004C02002030020020A9
:101E1000FC89000820554E49582054696D6553745B
:101E2000616D70203D2025642000000020256400A5
:101E300090FBF1F201FB1200FE4951F8200002462E
:101E4000FDA10D900EA802F021F801F02CF9C08838
:101E500000EBC0004004000C0EA90D9001F0C4F886
:101E600043988069FA4951F820000246F9A10D9083
:101E70000EA802F00BF80EAA9A21C32001F0E2F896
:101E80004398C0680D90439800690C900246F8A1F1
:101E90000EA80D9B01F0FAFF0EAA9A21892001F0ED
:101EA000D1F8439800680090439840680D9043989B
:101EB00080680C900246F0A10EA80D9B01F0E6FF91
:101EC000F248006800287DD10EAAD921572001F0E0
:101ED000B9F84FF6FF7001F0EEF8ED48008880B2D7
:101EE00000230246AC210D90782000F08DFF4FF6C4
:101EF000FF7001F0E0F800230222AC21782000F00E
:101F000083FF4FF6FF7001F0D6F80020232339221B
:101F100098210090912000F035FF0020DD490860F5
:101F200065E1DC4800684000019001F065FCDA4A98
:101F3000DA4BCDE9020101F07EFB0022D84BCDE95E
:101F4000040101F0EAFBCDE9060102F02DFC0022BC
:101F5000D44BCDE9080101F06EFB0022D24BCDE954
:101F60000A0101F0C1FACDE90C0101F056FCC849A3
:101F70000860C84800684000019001F03DFCC64A76
:101F8000C64BCDE9020101F056FB0022C44BCDE95E
:101F9000040101F0C2FBCDE9060102F0B7FB00220B
:101FA000C04BCDE9080101F046FB0022BF4BCDE953
:101FB0000A0101F03DFBCDE90C0101F02EFCBC490A
:101FC000086000E018E1B34800684000019001F0AB
:101FD00013FCB14AB14BCDE9020101F02CFB002208
:101FE000AF4BCDE9040101F098FBCDE9060102F009
:101FF000DBFB0022AF4BCDE9080101F01CFB002206
:10200000A94BCDE90A0101F06FFACDE90C0101F00D
:1020100004FCA94908609F4800684000019001F055
:10202000EBFB9D4A9D4BCDE9020101F004FB002230
:102030009B4BCDE9040101F070FBCDE9060102F0F4
:1020400065FB00229B4BCDE9080101F0F4FA002268
:10205000964BCDE90A0101F0EBFACDE90C0101F054
:10206000DCFB964908608B480068052190FBF1F283
:1020700001FB120000287CD18648006840000190D6
:1020800001F0BAFB844A854BCDE9020101F0D3FA95
:102090000022834BCDE9040101F03FFBCDE90601AD
:1020A00002F082FB0022864BCDE9080101F0C3FA61
:1020B00000227D4BCDE90A0101F016FACDE90C01B1
:1020C00001F0ABFB72490860724800684000019063
:1020D00001F092FB704A714BCDE9020101F0ABFABD
:1020E00000226F4BCDE9040101F017FBCDE9060199
:1020F00002F00CFB0022724BCDE9080101F09BFAC3
:1021000000226A4BCDE90A0101F092FACDE90C01F7
:1021100001F083FB664908605E480068400001905A
:1021200001F06AFB5C4A5D4BCDE9020101F083FAE4
:1021300000225B4BCDE9040101F0EFFACDE9060185
:1021400002F032FB0022574BCDE9080101F073FA8F
:102150000022554BCDE90A0101F0C6F9CDE90C0189
:1021600001F05BFB544908604A4800684000019058
:1021700000E023E001F040FB474A484BCDE9020173
:1021800001F059FA0022464BCDE9040101F0C5FAED
:10219000CDE9060102F0BAFA0022424BCDE908016E
:1021A00001F049FA0022414BCDE90A0101F040FA61
:1021B000CDE90C0101F031FB404908603C48008842
:1021C00080B20D903248008880B20C903B48008865
:1021D00080B20B903848008880B20A900BA90EC9D3
:1021E00000F080FD2B480068401C2A4908602948FF
:1021F00000683C28FFF695AE439880683149086036
:102200004398406830490860439800682F49086047
:10221000439800684000099001F0EEFA1E4A1F4BF7
:10222000CDE90A0101F007FA00221D4BCDE90C01AE
:102230004EE0000098020020204368696E657365D7
:102240002025732079656172202020202020000045
:102250007C02002020202020202020202020202060
:102260002020202020202020202020202573000056
:10227000202025642D25640025302E32643A253037
:102280002E32643A25302E3264000000B401002062
:10229000A0010020B00100204AD8124DFB210940C6
:1022A00000004E4000405A4000005E400080654003
:1022B000A401002000005940A8010020AC0100202A
:1022C00000C057401C0200202002002024020020F1
:1022D00001F023FAA34A03C20022A34BA14903C978
:1022E00001F01BFACDE90C014398406840000590CD
:1022F00001F082FA9D4A9E4BCDE9060101F09BF95F
:102300000022994BCDE9080101F007FACDE90A0155
:10231000DDE90C2301F0E8F8964A03C20022964B4F
:10232000944903C901F0F9F9CDE90C01439880689B
:102330004000059001F060FA8C4A8D4BCDE9060112
:1023400001F079F900228C4BCDE9080101F0E5F9A3
:10235000CDE90A01DDE90C2301F0C6F8874A03C282
:10236000804903C902F020FA0022854BCDE908011B
:1023700001F061F90022834BCDE90A0101F0B4F8C4
:10238000CDE90C0101F049FA7F490860754903C99C
:1023900002F0BCF900227A4BCDE9080101F04BF9BB
:1023A00000227A4BCDE90A0101F042F9CDE90C0196
:1023B00001F033FA764908606E4903C902F0F4F976
:1023C0000022744BCDE9080101F035F900226D4B74
:1023D000CDE90A0101F088F8CDE90C0101F01DFA00
:1023E0006D490860634903C902F090F90022694B06
:1023F000CDE9080101F01FF90022644BCDE90A0183
:1024000001F016F9CDE90C0101F007FA6349086003
:102410005A4903C902F0C8F90022614BCDE908010D
:1024200001F009F90022574BCDE90A0101F05CF8EF
:10243000CDE90C0101F0F1F95A4908604F4903C98F
:1024400002F064F90022564BCDE9080101F0F3F8DF
:1024500000224E4BCDE90A0101F0EAF8CDE90C016A
:1024600001F0DBF950490860002000F024FE4F48DD
:10247000008880B20D904E48008880B20C900246D1
:10248000AC2178200D9B00F02DFC4A48008880B2DA
:102490000D904948008880B20C900246AC2178200B
:1024A0000D9B00F01FFC4548008880B20D90444809
:1024B000008880B20C900246AC2178200D9B00F081
:1024C00011FC314800683E490860314800683B49CA
:1024D000086031480068384908603048006835496C
:1024E000086030480068324908602F4800682F496A
:1024F00008604FF6E07000F0DEFD2B48008880B2E7
:102500000D902848008880B20C900246AC217820BB
:102510000D9B00F0E7FB4FF4784000F0CCFD1F4826
:10252000008880B20D901C48008880B20C90024652
:10253000AC2178200D9B00F0D5FB4FF4FC6000F03F
:10254000BAFD1348008880B20D900F48008880B211
:102550000C900246AC2178200D9B00F0C3FB44B0E8
:1025600010BD0000C801002000004E404AD8124DA6
:10257000FB210940C001002000002840B8010020D4
:102580000040554000005E40E001002000806540B2
:10259000E401002000005240D8010020DC010020AE
:1025A00000004940D0010020D4010020EC010020AF
:1025B000E8010020F4010020F0010020FC010020CF
:1025C000F801002000B585B001210420FEF78EF847
:1025D00001218803FEF78AF84FF40070ADF810006F
:1025E00018208DF8130003208DF8120004A922484A
:1025F000FDF748FF4FF48060ADF8100004208DF81F
:10260000130004A91C48FDF73DFF4FF4E130009092
:102610000020ADF80400ADF80600ADF80800ADF8F4
:102620000C000C20ADF80A0069461448FEF716F9B4
:1026300001211248FEF77BF905B000BD70B50446D4
:102640000D46E1B20D48FEF77EF900BF80210B4830
:10265000FEF782F90028F9D0204670BD10B5044677
:1026600000BF20210548FEF777F90028F9D003487C
:10267000FEF76DF910BD0000000801400038014070
:1026800001B502E00098401E009000980028F9D1A2
:1026900008BD08B501216020FEF728F803208DF859
:1026A000020018208DF803004FF48040ADF80000C0
:1026B0006946FE48FDF7E6FE4FF40040ADF8000025
:1026C0006946FA48FDF7DEFE0120ADF800006946D4
:1026D000F648FDF7D7FE0220ADF800006946F34842
:1026E000FDF7D0FE8020ADF800006946F048FDF708
:1026F000C9FE4FF48070ADF800006946EC48FDF764
:10270000C1FE4FF40070ADF800006946E848FDF7DF
:10271000B9FE4FF48060ADF800006946E448FDF76B
:10272000B1FE4FF40060ADF800006946E048FDF7E7
:10273000A9FE4FF48050ADF800006946DC48FDF773
:10274000A1FE4FF40050ADF800006946D848FDF7EF
:1027500099FE4FF48040ADF800006946D448FDF77B
:1027600091FE4FF40040ADF800006946D048FDF7F7
:1027700089FE4FF48070ADF800006946CB48FDF744
:1027800081FE4FF40070ADF800006946C748FDF7C0
:1027900079FE4FF48060ADF800006946C348FDF74C
:1027A00071FE03208DF8020018208DF80300102020
:1027B000ADF800006946BD48FDF764FE2020ADF885
:1027C00000006946B948FDF75DFE8020ADF80000C5
:1027D0006946B648FDF756FE4FF40060ADF80000BC
:1027E0006946B248FDF74EFE10208DF80300032025
:1027F0008DF802000220ADF800006946AC48FDF7F4
:1028000041FE10208DF8030003208DF802004FF4E4
:102810008050ADF800006946A448FDF733FE08BDBE
:1028200000B597B001210802FDF753FF0120019088
:1028300004200390800607900020029004900590E9
:1028400006900890099008200A9010200B90002014
:102850000C900E900F9010904FF48050119000202B
:1028600012901390149001A81590169008A8FDF7E7
:102870007DFD01210020FDF7ECFD17B000BD10B576
:10288000CF2001F0E9FA002001F0EAFA812001F0FE
:10289000E7FA302001F0E4FAED2001F0DDFA6420DF
:1028A00001F0DEFA032001F0DBFA122001F0D8FA81
:1028B000812001F0D5FAE82001F0CEFA852001F060
:1028C000CFFA102001F0CCFA782001F0C9FACB2021
:1028D00001F0C2FA392001F0C3FA2C2001F0C0FA4D
:1028E000002001F0BDFA342001F0BAFA022001F014
:1028F000B7FAF72001F0B0FA202001F0B1FAEA208F
:1029000001F0AAFA002001F0ABFA002001F0A8FAC9
:10291000B12001F0A1FA002001F0A2FA1B2001F081
:102920009FFAB62001F098FA0A2001F099FAA22045
:1029300001F096FAC02001F08FFA352001F090FAEC
:10294000C12001F089FA112001F08AFAC52001F0B6
:1029500083FA452001F084FA452001F081FAC7206E
:1029600001F07AFAA22001F07BFAF22001F074FA69
:10297000002001F075FA262001F06EFA012001F026
:102980006FFAE02001F068FA0F2001F069FA2620C2
:1029900001F066FA242001F063FA0B2001F060FADE
:1029A0000E2001F05DFA092001F05AFA542001F0DE
:1029B00057FAA82001F054FA462001F051FA0C20F1
:1029C00001F04EFA172001F04BFA092001F048FA05
:1029D0000F2001F045FA072001F042FA002001F033
:1029E0003FFAE12001F038FA002001F039FA19200D
:1029F00001F036FA1B2001F033FA042001F030FA1E
:102A0000102001F02DFA072001F02AFA2A2001F007
:102A100027FA472001F024FA392001F021FA032097
:102A200001F01EFA062001F01BFA062001F018FA48
:102A3000302001F015FA382001F012FA0F2001F0D1
:102A40000FFA362001F008FAC82001F009FA2A200E
:102A500001F002FA002001F003FA002001F000FA70
:102A6000002001F0FDF9EF2001F0FAF92B2001F030
:102A7000F3F9002001F0F4F9002001F0F1F9012050
:102A800001F0EEF93F2001F0EBF93A2001F0E4F912
:102A9000552001F0E5F9112001F0DEF90548FFF7B6
:102AA000EFFD292001F0D8F910BD0000001401400D
:102AB00000180140FCBF020010B50446072C00DDE1
:102AC00010BDFB480470204604EBD0714910A4EB04
:102AD000410139B9F020F74908804FF4A070F64958
:102AE000088006E04FF4A070F2490880F020F24917
:102AF0000880362001F0B0F9082141EA441001F0C5
:102B0000AFF92A2001F0A8F9002001F0A9F900206E
:102B100001F0A6F9E7490988491EC1F3072001F031
:102B20009FF9E4490978491EC8B201F099F92B20B0
:102B300001F092F9002001F093F9002001F090F9E2
:102B4000DD490988491EC1F3072001F089F9DA49F6
:102B50000978491EC8B201F083F92C2001F07CF9F4
:102B600000BFADE710B50221D448FDF721FD40F6C6
:102B7000FF20FFF785FD0221D048FDF717FD40F645
:102B8000FF20FFF77DFD10BD10B504462CB14FF4BA
:102B90008051CB48FDF70CFD04E04FF48051C8484C
:102BA000FDF704FD10BD10B5FFF773FDFFF738FE0C
:102BB0000120FFF7E9FFFFF7D5FFFFF760FEBC48F4
:102BC0000078FFF779FF10BD2DE9F04104460D466E
:102BD00016461F462A2001F03FF9201201F040F965
:102BE000E0B201F03DF9A119491EC1F30F2001F037
:102BF00037F9A119491EC8B201F032F92B2001F0B2
:102C00002BF9281201F02CF9E8B201F029F9E919A1
:102C1000491EC1F30F2001F023F9E919491EC8B27A
:102C200001F01EF9BDE8F08170B504460D460123A0
:102C30001A4629462046FFF7C7FF70BD70B5044607
:102C40000D4600262C2001F007F900BF03E02846BE
:102C500001F006F9761CA642F9D370BD2DE9F041CA
:102C600006460F4614461D462B4622463946304638
:102C7000FFF7AAFF04FB05F092490988FFF7DEFF82
:102C8000BDE8F08170B505460C468A48008885424B
:102C90000CDA89480088844208DA21462846FFF782
:102CA000C3FF894801880120FFF7C8FF70BD70B5D8
:102CB0000024002500262E2001F0CEF801F0C6F8F1
:102CC000044601F0C3F8044601F0C0F8064601F0DE
:102CD000BDF80546E012C002A91240EA411040EAE0
:102CE000E62070BD2DE9FF4F83B081464FF0000A0A
:102CF000D3460598A0EB090504990698461ACDF825
:102D0000049004980090002D01DD012705E00DB925
:102D1000002702E04FF0FF376D42002E02DD4FF03A
:102D2000010806E016B94FF0000802E04FF0FF3846
:102D30007642B54201DD2C4600E034460020029088
:102D400019E0DDE90010FFF79DFFAA44B344A24556
:102D500005DDAAEB040A0198384480B20190A3452E
:102D600005DDABEB040B0098404480B20090029864
:102D7000401C80B20290611C02988842E1DD07B0DD
:102D8000BDE8F08F2DE9F04104460D4616461F467A
:102D9000DDF81880B8F1000F0CD03B4632462946CA
:102DA0002046FFF711FF06FB07F047490988FFF7A8
:102DB00045FF27E0A019401E82B22B462946204637
:102DC000FFF790FFE819401E83B2A019401E82B29F
:102DD000E819401E81B22046FFF784FFE819401E23
:102DE00083B2224629462046FFF77CFFE919491E97
:102DF0008BB2A119491E8AB2A119491E88B229466F
:102E0000FFF770FFBDE8F0812DE9F05F05460E4643
:102E100091469B4600240FFA89F70320A0EB490056
:102E20000FFA80FA96E0BBF1000F4FD0A0463BE0CE
:102E300006EB080291B22A1990B2FFF723FF06EBC6
:102E4000080291B22A1B90B2FFF71CFF321991B20F
:102E5000A5EB080290B2FFF715FF321B91B2A5EB6C
:102E6000080290B2FFF70EFFA6EB080291B22A1BF0
:102E700090B2FFF707FFA6EB080291B22A1990B2B1
:102E8000FFF700FF321B91B205EB080290B2FFF78B
:102E9000F9FE321991B205EB080290B2FFF7F2FE8B
:102EA00008F101000FFA80F8B845C1DD3EE00000EE
:102EB000D0020020CC020020CE02002000180140E9
:102EC00000140140DA020020D8020020F21991B269
:102ED0002A1990B2FFF7D6FEF21991B22A1B90B2CE
:102EE000FFF7D0FE321991B2EA1B90B2FFF7CAFE8B
:102EF000321B91B2EA1B90B2FFF7C4FEF21B91B2F3
:102F00002A1B90B2FFF7BEFEF21B91B22A1990B2B3
:102F1000FFF7B8FE321B91B2EA1990B2FFF7B2FE8A
:102F2000321991B2EA1990B2FFF7ACFE601C04B2FC
:102F3000BAF1000F05DAA000801D50440FFA80FAA4
:102F400007E0E01B80000A3050440FFA80FA781E38
:102F500007B200BFBC427FF766AFBDE8F09F2DE926
:102F6000F05F804689461646A6F120001FFA80FAD7
:102F7000524909688988514A1268D28801FB02F0D7
:102F8000C11700EB5171C1F3C7074C4800680068D6
:102F90000AFB070B49480068C388484800688288D4
:102FA00049464046FFF710FE2C2000F055FF002454
:102FB00016E0002510E01BF804008021294108409C
:102FC00020B13F48008800F04BFF03E03D480088F7
:102FD00000F046FF681CC5B2082DECDB601CC4B2D3
:102FE000BC42E6DBBDE8F09F70B504460D46002606
:102FF00024E0304631490968898808443249098803
:10300000884205DD00262D480068C088204484B22F
:1030100020462A490968C98808442C4909888842F9
:1030200001DD002600242A7821463046FFF797FF6D
:103030006D1C224800688088304486B228780028B9
:10304000D7D170BD70B505460E46144624E028461B
:103050001A490968898808441B490988884205DD9E
:10306000002516480068C088304486B230461349AF
:103070000968C988084415490988884201DD002586
:103080000026227831462846FFF769FF641C0B486A
:1030900000688088284485B220780028D7D170BD88
:1030A000064908607047054800687047044A108068
:1030B000044A11807047024908807047D4020020FA
:1030C000D8020020DA020020CC020020CE0200202C
:1030D00008B501211420FDF709FB0120ADF800001F
:1030E00004208DF8030069461148FDF7CBF94FF431
:1030F0000050ADF8000004208DF8030069460D482B
:10310000FDF7C0F908BD70B504460D4629462046B6
:10311000FDF743FA012808D100BF29462046FDF7F4
:103120003CFA0128F9D0012070BD0020FCE7000026
:10313000000801400010014008B501210420FDF7FE
:10314000D5FA4FF48070ADF8000010208DF8030020
:1031500003208DF8020069460448FDF793F94FF407
:1031600080710248FDF724FA08BD00000008014004
:1031700008B501214020FDF7B9FA4020ADF8000064
:1031800010208DF8030003208DF802006946514895
:10319000FDF778F908BD10B5FFF7EAFF40214D486B
:1031A000FDF704FA10BD08B54020ADF80000482036
:1031B0008DF8030069464748FDF764F908BD08B576
:1031C0004020ADF8000010208DF8030003208DF89A
:1031D000020069463F48FDF755F908BD70B5002566
:1031E000002424E000BF40213A48FDF7D6F900282A
:1031F000F9D0282000F082F840213648FDF7CDF9BB
:1032000001280DD100BF40213248FDF7C6F9012841
:10321000F9D0C4F1070101208840C0B2054304E0A1
:10322000C4F10701012088408543601CC4B2082C0A
:10323000D8DB284670BD10B50446FFF7C0FF40211B
:103240002448FDF7B5F944F2506000F057F84021EA
:103250002048FDF7ABF91E2000F050F8FFF7A3FF60
:1032600040211C48FDF799F980BB00BF4021194857
:10327000FDF793F90028F9D000BF40211548FDF76C
:103280008CF90128F9D0FFF7A9FF2070FFF7A6FFFE
:103290006070FFF7A3FFA070FFF7A0FFE070FFF7DB
:1032A0009DFF2071FFF78BFF40210A48FDF77EF953
:1032B000207861780844A1780844E17808442179AD
:1032C000884201D1012010BD0020FCE7FFE700206B
:1032D000F9E70000001801401B48006840F08070CA
:1032E000194908600020194948600846006840F004
:1032F00001000860704715484068704731B50024E8
:10330000FFF7EAFF124800681249B0FBF1F000999C
:1033100000FB01F500BFFFF7EEFF034611E0FFF7EA
:10332000EAFF02469A420CD09A4202D9D01A0444CB
:1033300003E0C3F1FF30104404441346AC4200D311
:1033400000E0ECE700BF38BDFCED00E0001000E05D
:103350000000002040420F0040EA01039B0703D019
:1033600009E008C9121F08C0042AFAD203E011F8C4
:10337000013B00F8013B521EF9D270470FB400B573
:1033800089B00BA800906A4603480A9900F0BAFA7F
:1033900009B05DF814FB0000F40200202DE9FF5F86
:1033A0001D464FF0FF3BD5E9014691465F464FF081
:1033B0000008A9697F1C01988847296A82468847C6
:1033C0000028F6D1BAF1FF3F0CD024F4C064002EDF
:1033D00019DD600614D5BAF12B0F09D0BAF12D0F03
:1033E0000ED103E0584604B0BDE8F09F44F4806479
:1033F000A9697F1C01988847761E8246002E02DD4F
:10340000BAF1300F03D0B9F1000F26D032E0A9692C
:10341000761E44F400747F1C019888478246002E73
:1034200005DDBAF1780F06D0BAF1580F03D0B9F123
:10343000000F10D01EE0B9F1000F02D0B9F1100F4B
:1034400018D1A969761E24F400747F1C019888475E
:103450008246102002E0082000E00A20814609E0B0
:1034600008FB0908A969761E44F400747F1C0198C2
:1034700088478246002E05DD4946504600F033FA63
:103480000028EDDAE96901988847A00502D46FF0B9
:103490000100A8E7E00725D1600613D5600502D535
:1034A000C8F1000000E0404629680A1D2A6009684A
:1034B000220501D5087015E0220701D5088011E02A
:1034C00008600FE02868011D29600068210502D509
:1034D00080F8008006E0210702D5A0F8008001E016
:1034E000C0F8008038467EE72DE9FE4F804681EA2D
:1034F0000300C00F0C46009021F0004123F000456E
:10350000B8EB0200A94105D24046214690461C4630
:103510000B46024623F00040104347D0270DC7F367
:103520000A00C3F30A510290401A019040286BDA56
:10353000C3F3130040F4801B0098924620B100238F
:10354000D2EB030A63EB0B0B01985946C0F1400222
:10355000504600F097F906460D4650465946019AE6
:1035600000F0AFF910EB08006141002487EA115226
:1035700084EAE7731A4340D0009A62B3019A012AA1
:103580004FEA075215DC001B61EB02014FF00042CD
:1035900002EA0752CDE90042001C41F58011324693
:1035A0002B4600F0C8F903B0BDE8F08F4046214635
:1035B000F9E7001B61EB0201001C41F580130018C4
:1035C0005B412018A2F5001747EB030140EAD570D4
:1035D000B6196D4111E06D084FEA360645EAC0752F
:1035E0004FEA0752001B61EB0201001C41F58011FC
:1035F00049084FEA30000019514132462B4603B0CA
:10360000BDE8F04F00F088B9009801224000002387
:10361000D0EB020263EBE073009821464FEAE074BE
:10362000B8EB000061EB0401E9E783F000435BE7DE
:1036300081F0004158E72DE9FE4F81EA030404F0D0
:10364000004421F0004100944FF0000B23F00043B0
:1036500050EA01045ED052EA03045BD0C3F30A547B
:10366000C1F30A552C44A4F2F3340194A0FB025494
:10367000C1F3130141F48011C3F3130343F4801326
:1036800001FB024400FB034E840A970A44EA81547A
:1036900047EA8357A4FB076802958D0A05FB078557
:1036A0004FEA932C04FB0C542705029D4FEA065861
:1036B00047EA1637B5EB08056EEB070C870E920E3E
:1036C00047EA811742EA8312A7FB0201B6EB0B011E
:1036D00064EB00042B0D43EA0C335E1844EB1C50E2
:1036E000DA465146E7FB0201C5F313044FEA0B33F8
:1036F00043EA14534FEA0432019C43EA0603A4F15F
:103700000C040294009CCDE900B400F014F903B05D
:10371000BDE8F08F00200146F9E72DE9F04D81EA80
:10372000030404F0004B21F0004514464FF0000A5A
:1037300023F0004150EA050220D054EA01021DD0D6
:10374000C5F30A570246C5F31303C1F31300C1F3CF
:103750000A5640F4801543F48013A7EB0608101BAB
:10376000D64608F2FD3873EB050002D308F10108D4
:1037700001E092185B41B8F1000F03DA0020014626
:10378000BDE8F08D00204FF48011064684460EE01F
:10379000171B73EB050705D3121B63EB05030643E9
:1037A0004CEA010C49084FEA300092185B4150EA9C
:1037B0000107EDD152EA030012D082EA040083EA45
:1037C0000501084305D0101BAB4106D2012200239E
:1037D00006E000224FF0004302E06FF001025310B8
:1037E0001AEB06004CEB085110EB0A0041EB0B0101
:1037F000BDE8F04D00F090B80EB5C10F80EAE07062
:103800000844CA07002140F233438DE80E000A46FF
:103810000B4600F090F803B000BD70B5C1F30A523A
:1038200001F000450024C1F3130140F2FF3341F4DD
:1038300080119A4201DA002070BD40F233439A426F
:10384000A2F2334203DC524200F02BF800E0904039
:103850002C43F1D0404270BD30B50B4601460020EC
:103860002022012409E021FA02F59D4205D303FA42
:1038700002F5491B04FA02F52844151EA2F10102C3
:10388000F1DC30BD202A04DB203A00FA02F10020EE
:1038900070479140C2F1200320FA03F3194390408E
:1038A0007047202A04DB203A21FA02F000217047F9
:1038B00021FA02F3D040C2F1200291400843194698
:1038C0007047202A06DBCB17203A41FA02F043EA80
:1038D000E07306E041FA02F3D040C2F120029140C9
:1038E0000843194670473A2800D2303820F02002A9
:1038F000412A01D3A2F13700884201D34FF0FF30B3
:1039000070470000024B9361024BD36100F090B806
:103910005D260008153A000810B5141E73F1000466
:1039200008DA401C41F1000192185B411A4301D1B1
:1039300020F0010010BD2DE9F04D92469B4611B1DB
:10394000B1FA81F202E0B0FA80F220329046FFF73D
:1039500099FF04460F4640EA0A0041EA0B0153462C
:103960005A46084313D0114653EA010019D0C8F152
:1039700040025046FFF795FF05460E465046594611
:103980004246FFF77FFF084305D0012004E02046B0
:103990003946BDE8F08D0020054346EAE0762C4329
:1039A00037430A986305E40AA0EB08000022FD0AE9
:1039B00044EA47540A3002D500200146E9E70105F0
:1039C00010196941DDE9084500196941BDE8F04D6C
:1039D000A2E70000064C074D06E0E06840F0010356
:1039E00094E8070098471034AC42F6D3FCF7A4FBE8
:1039F000888C0008A88C0008094910B508784C1C70
:103A000018B1401E0870205C10BD00210720ABBE1D
:103A1000207010BD02490878421C0A7070470000EF
:103A200000030020026811441378016018467047B3
:103A3000D1600449516104491162002111611146AC
:103A400000F02EB8253A0008953A000870B521F02C
:103A5000004303430CD0C1F30A550024D5EB040501
:103A600064EB0403D617AD1AB34102DB0020014614
:103A700070BD201841EB025170BD0EB540F23341CC
:103A800002910021CDE900110A460B46FFF753FFD2
:103A900003B000BDC0B24FF4F05100F097B9000080
:103AA0002DE9F34F8BB04FF0000801F10C000C46EC
:103AB0004FF0010B46460DF1080A019062690121A1
:103AC0000198904705002DD0252D2CD0216A8847DC
:103AD000C0B16269012101989047216A8847002896
:103AE000F7D1411E62690198904700E0761CA169F8
:103AF0000B988847216A88470028F7D1E1690B981D
:103B00008847DBE7A1690B9888470746A84201D19F
:103B1000761CD3E7E1690B9888477F1C02D1B8F186
:103B2000000F6FD046E1002762693D463946019893
:103B300090472A2804D16269012101989047012504
:103B4000DFF884926269012101989047A0F1300169
:103B50000A290AD24F45E5DC07EB870100EB410754
:103B6000303FDFD445F01005ECE7E90601D46FF0F3
:103B700000476C280AD04C2814D0682815D06A2831
:103B80000DD074281CD07A281AD01DE0626901215A
:103B9000019890476C2802D045F0040514E045F0E8
:103BA00002050DE045F020050AE062690121019857
:103BB0009047682802D045F0080505E045F4006507
:103BC0006269012101989047C4E9015765283DD0F9
:103BD00019DC58287AD00CDC452837D004DC25289D
:103BE00026D0412831D131E046282FD047282CD18A
:103BF0002CE05B2877D0612828D063287CD064280B
:103C000023D15AE0D0E06F2848D008DC66281DD0C8
:103C100067281BD0692821D06E2816D127E070288C
:103C200045D0732868D0752847D078280DD14DE04D
:103C3000A1690B988847054625283FF469AFE169DB
:103C40000B9888476D1C3FF46AAFB3E023466A4681
:103C50006FF001000B99AFF300809EE045F040004B
:103C60006060A80723464FF0000236D43EE0E80724
:103C70007FF447AF2068011D21600068290501D548
:103C800006701BE7290701D5068017E7A90703D5AA
:103C9000F117C0E9006111E706600FE745F0400049
:103CA0006060A80723464FF0080216D41EE040F6D5
:103CB0000E0125EA0100606016E045F040006060FA
:103CC000A80723464FF00A0207D40FE045F0400052
:103CD0006060A80708D5234610226FF001000B99F9
:103CE000AFF3008059E007E0234610226FF0010097
:103CF0000B99FFF753FB50E04FF000094F464B463E
:103D0000632802D05B2806D040E0E80601D40120F9
:103D1000A06001273AE062690121019890475E287E
:103D200005D14FF001096269494601989047216920
:103D300039B900210A46534643F82120491C082975
:103D4000FADBB0B3216969B9C11700EBD162531135
:103D50000AEB830122F01F02821A01200B689040B7
:103D600003430B6062690121019890475D28E8D107
:103D7000B9F1000F09D00020514651F82020D2435C
:103D800041F82020401C0828F7DB02AB22460097B0
:103D90006FF001000B99AFF3008000280CDA401C93
:103DA00008D1BBF1000F05D04FF0FF300DB0BDE8DA
:103DB000F08FFFE74046F9E7E90701D108F1010874
:103DC00006444FF0000B79E6CCCCCC0C7F2801D90F
:103DD000002208E0064A02EB5002C007127800D128
:103DE000120902F00F0201209040084070470000C5
:103DF0002888000870B58C1810F8015B15F00703CF
:103E000001D110F8013B2A1106D110F8012B03E073
:103E100010F8016B01F8016B5B1EF9D12B0705D47B
:103E20000023521E0DD401F8013BFAE710F8013BC4
:103E3000CB1A921C03E013F8015B01F8015B521EE0
:103E4000F9D5A142D8D3002070BD000001480088F8
:103E500070470000000002604FF0C04108807047CA
:103E60000149088070470000000002600FB4054B54
:103E700010B503A9044A029800F066FB10BC5DF877
:103E800014FB00003D260008F80200200FB4084B88
:103E900010B504A902AA039800F056FB044602A933
:103EA000002000F02DFC204610BC5DF814FB000043
:103EB00001470008490050EAC12018BF04204A0DFC
:103EC00018BF40F0010040F2FF72B2EB515F08BF33
:103ED00040F00200012808BF052070472DE9F74F88
:103EE000144694B00021C4E902111599079121F0FC
:103EF0000045C9498D4206DC1599C4E9000117B097
:103F00000020BDE8F08FC549DFF814A3A9423CDDCD
:103F10000799C44E0029C44FC44A1599534619DD68
:103F2000FFF783FB554506D0C14AC24BFFF77DFB27
:103F3000C4E900010AE04FF0D352BE4BFFF775FB16
:103F400032463B46FFF771FBC4E9000117B0012080
:103F5000BDE8F08FFFF7C8FA554506D0B44AB54B17
:103F6000FFF7C2FAC4E900010AE04FF0D352B14BA7
:103F7000FFF7BAFA32463B46FFF7B6FAC4E900014A
:103F800017B04FF0FF30BDE8F08FAB49A94215994B
:103F900078DB21F0004183468846A84AA84BFFF70A
:103FA0004AFB0022A74BFFF79FFAFFF736FC099068
:103FB000FFF722FC06460F469C4A5346FFF73BFBA1
:103FC00043465A46FFF734FB80468A46984A994B47
:103FD00030463946FFF72FFB2A0D01250B9242464A
:103FE0005346FFF725FB032DC4E9000139D00B9898
:103FF000C1F30A51401A05EB45111139814230DAFB
:104000009148C346784400EB0510CDF80CA00C9005
:10401000D0E9002330463946FFF70DFB02460B4638
:104020000491069058460399FFF7FFFA80468A46A6
:1040300002460B4658460399FFF7F7FA049B069A87
:10404000FFF7F3FA83460C9803913946D0E902232F
:104050003046FFF7F0FA5A46039BFFF7E6FA6D1C6D
:10406000BDE707980028A2BF099817B0BDE8F08FF8
:10407000616881F000416160099817B04042BDE875
:10408000F08FFFE784461598C1F31301C0F30A507F
:10409000A0F2F5304FEA601800F01F06C6F12000CC
:1040A000139000200690079041F4801E05206D4675
:1040B00076B1664A08EB00017A4452F8213002EBEF
:1040C0008101B3404A68139922FA01F1194305E0CE
:1040D0005F4908EB0002794451F82210A1FB0E273A
:1040E000A1FB0C131A449A4234BF0123002303EBB3
:1040F000070A05EB8003D3E901B70F448F4234BFB1
:104100000121002193448B4411B1934502D903E06E
:10411000934501D2012100E00021C3E901B75144D8
:1041200045F82010011EA0F10100C1DC0298059F96
:1041300000F10050800F12900298DDE903568000D4
:10414000FFF75AFB834628460D91FFF796FC6FF068
:104150001D02FFF77BFCCDE90E013046FFF78DFC19
:104160006FF03D02FFF772FC80468A463846FFF743
:1041700084FC6FF05D02FFF769FC07464246534638
:104180001191FFF7B1F9DDE90E23FFF7ADF95A46BA
:104190000D9BFFF7A9F900250E465A4628460D9BB0
:1041A000FFF743FADDE90E23FFF73FFA4246534695
:1041B000FFF73BFA3A46119BFFF73AFADFF898A06F
:1041C000244A5346FFF737FA07468846234A244BCA
:1041D00031462846FFF72FFA3A464346FFF784F95F
:1041E000074688464FF0A842534631462846FFF717
:1041F00022FA3A464346FFF777F9159A12F0004F34
:1042000004D0129A81F0004152421292C4E9000196
:10421000129817B0BDE8F08FFB21E93F7CD902402E
:10422000FB21F93F7370032E8A19A33B0000405411
:104230003163621A61B4D03DFB21394183C8C96D35
:10424000305FE43F0000E03F30470000AC46000034
:104250008E460000182D4454FB21F93D3326A6114B
:10426000460B113C2DE9FF4D21F0004807460C4656
:10427000B8F1795F08DAFFF7D0FA002801BF002013
:10428000324904B0BDE8F08D3A462346104619463F
:10429000FFF7D1F9054602462D480E460B4606218A
:1042A000784400F05DF82A463346FFF7C4F9DDE9AB
:1042B000022382468B4638462146FFF7BCF9044666
:1042C0000F4652465B4628463146FFF7B4F9224670
:1042D0003B46FFF7AAF907468A464FF0FF322846C9
:1042E0003146FFF7B3FB1B4A90450ADA3A4653467C
:1042F000FFF79BF904B00022BDE8F04D134BFFF728
:1043000097B9154A4245A8BFA8F500154FF000041B
:10431000B8BF124D22462B46FFF787F9064688465E
:1043200022462B4600200949FFF77FF904460D4637
:104330003A46534630464146FFF777F904B02246E5
:104340002B46BDE8F04DFFF773B900000000F03FC9
:10435000644400003333D33F0000E93F0000D23F04
:104360002DE9F0414F1E00EBC7010446D1E90001E1
:1043700015461E4637F006020DD02A463346FFF793
:104380005AF97F1E04EBC703D3E90023FFF7ACF80B
:1043900037F00602F1D1022F25D0042F13D0062FBB
:1043A00018BFBDE8F0812A463346FFF744F9D4E947
:1043B0000A23FFF799F82A463346FFF73CF9D4E978
:1043C0000823FFF791F82A463346FFF734F9D4E97A
:1043D0000623FFF789F82A463346FFF72CF9D4E97C
:1043E0000423FFF781F82A463346FFF724F9D4E97E
:1043F0000223FFF779F82A463346FFF71CF9D4E980
:104400000023BDE8F041FFF76FB800002DE9FF4D34
:10441000054621F0004084B00C46B0F1795F0BDA1C
:104420002846FFF747FD042808BF00F06FF828462C
:1044300008B02146BDE8F08D2A460B461046FFF72E
:10444000FAF806460F462A462346FFF7F4F8804658
:1044500026488A4632463B4605217844FFF780FFCE
:1044600083461098029160B3214A224B4046514640
:10447000FFF7E1F8CDE900015A4640465146029B5C
:10448000FFF7D9F882468846DDE906014FF0FF3292
:10449000FFF7DCFA52464346FFF7C7F832463B4681
:1044A000FFF7C9F8DDE90623FFF7BFF8DDE90023D0
:1044B000FFF7BBF808B02A462346BDE8F04DFFF7EA
:1044C000B7B80B465A4630463946FFF7B4F8084AA3
:1044D000084BFFF709F842465346FFF7ACF808B01F
:1044E0002A462346BDE8F04DFEF7FEBFA24300007A
:1044F000495555555555C5BF0122FFF7A7BA0022AA
:10450000134610461146FFF708B90000024A002082
:104510001107FFF79BBA000001FDFFFF02E008C88A
:10452000121F08C1002AFAD170477047002001E02D
:1045300001C1121F002AFBD1704700000149086029
:1045400070470000FC0200202DE9FF4F8BB09A4617
:104550000F460546002606E025280BD052460D9949
:1045600090476D1C761C28780028F5D10FB0304696
:10457000BDE8F08F0024A0460122604900E004431A
:1045800015F8013F203B02FA03F00842F7D12878E2
:104590002E2817D115F8010F44F004042A280ED054
:1045A0006FF02F022878A0F1300109290AD808EB12
:1045B000880102EB410100EB01086D1CF2E757F89E
:1045C000048B6D1C287869283ED006DC0028CDD0ED
:1045D00063280BD0642804D136E0732810D07528E6
:1045E0004BD052460D999047761C85E017F8040B86
:1045F0008DF8000000208DF80100E946012003E05D
:1046000057F8049B4FF0FF3061074FF0000401D4CE
:104610000AE0641C44450DDA8442FADB19F8041000
:104620000029F6D106E0641C8442FCDB19F8041072
:104630000029F8D1264404E019F8010B52460D99DF
:104640009047641EF8D257E001CF4FF00A0B0028C4
:1046500002DA40422D2102E0210504D52B218DF8FC
:104660002410012103E0E10705D02021F7E70DF137
:10467000200908910CE00021F9E701CF4FF00A0B67
:10468000F9E75946FFF7E8F801F1300209F8012D82
:104690000028F6D1ADEB090000F1200B600701D432
:1046A0004FF00108D84502DDA8EB0B0000E0002028
:1046B0008046002406E009A85246005D0D99904707
:1046C000641C761C08988442F5DB04E030205246D6
:1046D0000D999047761CB8F10001A8F10108F5DCAE
:1046E00005E019F8010B52460D999047761CBBF175
:1046F0000001ABF1010BF4DC6D1C34E7092801006B
:104700000A68531C0B6010707047000000B5244B02
:1047100021F0004287B09A42DCBF0022134629DD17
:10472000204B9A4208D140B94FF00100FFF706FF35
:10473000FFF7E5FE07B000BD03DBFFF7DDFE07B0C6
:1047400000BD02AAFFF7CAFB10F0030104BF0DF180
:10475000080C9CE80F000DD0012001290ED0022981
:1047600014D00DF1080C00909CE80F00FFF74EFEEE
:1047700007B000BDFFF776FD07B000BD0DF1080CD6
:1047800000909CE80F00FFF741FE05E00DF1080CDA
:104790009CE80F00FFF766FD07B081F0004100BD07
:1047A000FB21E93F0000F07F00B5254B21F00042DE
:1047B00087B09A4203DC0022134600922BE0214B83
:1047C0009A4208D140B94FF00100FFF7B7FEFFF75A
:1047D00096FE07B000BD03DBFFF78EFE07B000BDFD
:1047E00002AAFFF77BFB10F003014FF001000DD090
:1047F000012914D002291AD00DF1080C9CE80F00F1
:10480000FFF730FD07B081F0004100BD0DF1080C4D
:1048100000909CE80F00FFF7F9FD07B000BD0DF117
:10482000080C9CE80F00FFF71DFD07B000BD0DF15F
:10483000080C00909CE80F00FFF7E8FDE2E700009D
:10484000FB21E93F0000F07F04AE530A574855268C
:10485000BD0D26500D954446AAB9056A4D09AD42D5
:1048600024AEB604AE4A6A4DBE0A4D520D25465DD1
:1048700052BA0B544E0D6A43296D37095B4B749B3A
:10488000C10497540A4B485B25BC06A55006D44585
:104890004ADAB802B64D0957422497B704974A66D8
:1048A0004B3E0D4A510EA54656D4BA05AD4E02B642
:1048B00044393738092E4B7C96BF0C95530D4A4826
:1048C0006DA53B0B554F056A454AADB9025D4D09D3
:1048D0002D422C95B60A954A7B4ABD06CA510B5506
:1048E00046555ABB04DA4E0A5B43352BB8052B4CB0
:1048F0008A953F0E955206AA487AD53C0AB54F04D0
:10490000B6454A57390A574D0526423E93350D950F
:104910004975AABE056A51096D4654AEBB04AD4F38
:104920000A4D434D26B70D254B8D52BF0B54520BEC
:104930006A47696D3C095B50049B454A4BB90A4B79
:104940004DAB25C206A55406D4496ADA3D0AB651D4
:104950000937465497BB04974F064B4436A5370E8C
:10496000A54A86B2BF05AC530AB6475936BC092ED4
:10497000500C96454D4AB80D4A4C0DA54125AAB696
:10498000056A497AADBD025D52092D475C95BA0AA8
:10499000954E0B4A434B55370AD54A955ABF04BA30
:1049A000530A5B48652BBC052B500A9345474AB90F
:1049B00006AA4C0AD54124DAB604B64A69573D0A1C
:1049C0004E510D26465E933A0D534D05AA4336B51A
:1049D00037096D4BB4AEBF04AD530A4D486D25BCCD
:1049E0000D254F0D52445DAA380B5A4C056D4124DC
:1049F000ADB6049B4A7A4BBE0A4B510AA5465B52A0
:104A0000BA06D24E0ADA42355B3709374B8497C172
:104A1000049753064B4866A53C0EA54F06B2444A80
:104A2000B6380AAE4C092E423C97350C96497D4A61
:104A3000BD0D4A510DA54555AABA056A4E0A6D43EA
:104A4000452EB7052D4B8A95BF0A95530B4A476BE8
:104A5000553B0AD54F055A454A5D380A5B4C052B34
:104A6000423A93B60693497729BD06AA510AD5461C
:104A700054DABA04B64E0A57434527380D264A8EF3
:104A8000933E0D52520DAA4766B53B056D4F04AEDD
:104A9000454A4EB90A4D4C0D15412D92B54EA69979
:104AA0009CA2988000180010244EA6999CA2988081
:104AB00082180010244EA6D99EA298808218001059
:104AC000044EE6D99EA6A88082180010000FE6D9F1
:104AD000BEA6988882188000000FEFD9BEA6998CD8
:104AE00082988000000FEFDBBEA6999CA298800000
:104AF000180FEFDBBEA6999CA2988000180FEFDB81
:104B0000BEA2998CA0988082180BEFDBBEA6998C70
:104B1000A2988082180FEFDBBEE6D99EA298808211
:104B2000180FEFFBBFE6D99EA6988082180FFFFFF3
:104B3000FCEFD9BEA61806140413061505140615B5
:104B40000615071708170817081808160716001F74
:104B50003B5A7897B5D4F300110130014E010003A0
:104B6000030601040602050003051F1C1F1E1F1E6D
:104B70001F1F1E1F1E1F0000000000001F0000005E
:104B80003B0000005A000000780000009700000081
:104B9000B5000000D4000000F30000001101000087
:104BA000300100004E010000000000000000000085
:104BB000000000000000000000000018181818187D
:104BC0001808000818000000000000342424240005
:104BD00000000000000000000000000016247F24F8
:104BE00024247E2424000000000000083E68486859
:104BF0001C1612127C10100000000061D29674087E
:104C000010162949C6000000000000003C6464380A
:104C1000724ACE467F0000000000001818181800E5
:104C20000000000000000000000000040818103020
:104C30003030301010180C04000000201008080C50
:104C40000404040C08181020000000080A341C6A30
:104C5000080000000000000000000000000018181C
:104C6000187F181818000000000000000000000065
:104C700000000018180830000000000000000000CC
:104C8000003C0000000000000000000000000000E8
:104C900000000018180000000000000206040C08C4
:104CA0000810102020400000000000003C66424731
:104CB0005B7342663C000000000000001878480862
:104CC000080808087E000000000000003C460606B8
:104CD000040810207E000000000000007C0606048E
:104CE0003C0202067C000000000000000C1C1424A2
:104CF0006444FF0404000000000000007E60606067
:104D00007E0202067C000000000000001E306048A9
:104D1000764242623C000000000000007E02060471
:104D20000C08181030000000000000003C62423601
:104D30001C6642423C000000000000003C6642420B
:104D4000661A020478000000000000000000181835
:104D500000000018180000000000000000001818F3
:104D600000000018180830000000000000000418BF
:104D70003060100C06000000000000000000000081
:104D80007E007E00000000000000000000003018DF
:104D900004060C1020000000000000301C0606066F
:104DA00018100010100000000000001C224141DD1E
:104DB000B5A5A5AF94C0403C00000000181C3424E9
:104DC00026627E43C1000000000000007C4642468F
:104DD0007C4242427C000000000000001E20404057
:104DE000404040603E000000000000007C4642431E
:104DF0004343424678000000000000007E6060608F
:104E00007E6060607E000000000000007E606060E8
:104E10007E60606060000000000000001E60404096
:104E2000CE4242623E000000000000004242424288
:104E30007E42424242000000000000007E18181826
:104E4000181818187E000000000000007C040404FC
:104E5000040404447800000000000000424448506C
:104E600070584C4442000000000000002020202028
:104E7000202020203E000000000000006266675FE6
:104E80005B5BC1C1C10000000000000062627252A1
:104E90005A4A4E4646000000000000003C6243C3F0
:104EA000C3C343623C000000000000007C46424255
:104EB0004678404040000000000000003C6243C3D0
:104EC000C3C343623C180F00000000007C666266AA
:104ED0007C6C646662000000000000003E60406080
:104EE0001C0602027C000000000000007F18181859
:104EF0001818181818000000000000004242424232
:104F0000424242623C00000000000000C143426295
:104F10002624341C1800000000000000C1C14149D3
:104F20005B5B766666000000000000004366341894
:104F3000181C2466C300000000000000C142663453
:104F40001C18181818000000000000007E02040C55
:104F5000181020607E0000000000001C10101010CF
:104F6000101010101010101C000000402020101015
:104F700008080C04060200000000003C0C0C0C0C9D
:104F80000C0C0C0C0C0C0C3C00000000181C2462D7
:104F90000000000000000000000000000000000011
:104FA00000000000000000FF0000002010000000D2
:104FB00000000000000000000000000000003C06AF
:104FC000023E42467A0000000000004040405C6221
:104FD000424242427C0000000000000000001E200F
:104FE000604060203E0000000000000202023E62BD
:104FF000424242663A0000000000000000003C62AD
:10500000427E40603E0000000000000F1810107E3D
:1050100010101010100000000000000000003F669B
:10502000426658403E43423C0000004040405C62C3
:105030004242424242000000000000181800780876
:10504000080808087E000000000000040C007C0432
:105050000404040404040C78000000606060626CC6
:105060007870686462000000000000780808080892
:10507000080808087E000000000000000000764BD1
:105080004B4B4B4B4B0000000000000000005C62EB
:1050900042424242420000000000000000003C6228
:1050A000424342623C0000000000000000005C62DD
:1050B000424242427C4040400000000000003E620C
:1050C000424242663A0202020000000000006E7294
:1050D00063606060600000000000000000003E208F
:1050E000203C06027C000000000000001010FE10B2
:1050F000101010101E0000000000000000004242CE
:10510000424242663A0000000000000000004342B4
:105110006624341818000000000000000000C1C11F
:105120005B5A5E6666000000000000000000622618
:105130001C181C2662000000000000000000434212
:105140006624341C181830E00000000000007E06C1
:105150000C1810207E0000000000000E1810101027
:10516000307010101010180E000008080808080809
:10517000080808080808080800000030180808088F
:105180000C0E08080808183000000000000000009D
:10519000714B06000000000000000000000000004D
:1051A00000000000000000000000000000000000FF
:1051B00000000000000000000000000000000000EF
:1051C00000000000000000000000000000000000DF
:1051D0000000038001800180018001800180018046
:1051E0000180018001800000000003C003C00000B6
:1051F00000000000000000000000000000000000AF
:1052000000000E700E700E700C30000000000000E8
:10521000000000000000000000000000000000008E
:10522000000000000000000000000000000000007E
:10523000000000000618063806307FFE0C300C30E7
:105240000C300C307FFE0C601C6018601860000091
:10525000000000000000000000000000000000004E
:1052600000C000C00FF83CC831C031803D801F80B5
:1052700003F001F8031C030C031C3FF83FE0070098
:105280000600000000000000000000000000000018
:105290001C007E0E630C631863307E6000C00180CA
:1052A0000300077C0EE61CC618C630C6607C0000F2
:1052B00000000000000000000000000000000000EE
:1052C00000000FE01CF0387038701C601FC00F0029
:1052D0003F8C71CC60EC607C70383CFC1FCE0000D1
:1052E00000000000000000000000000000000000BE
:1052F000000003C001800180018000000000000068
:10530000000000000000000000000000000000009D
:10531000000000000000000000000000000000008D
:10532000003000E001C00180030007000600060015
:105330000E000E000E000E000600070003000380A2
:1053400001C000E00030000000000000000000008C
:105350000C0006000380018001C000E000600060D6
:105360000070007000700060006000E000C001800C
:10537000038006000C000000000000000000000098
:105380000000018011881DB803C007E03DBC018802
:10539000018000000000000000000000000000008C
:1053A00000000000000000000000000000000000FD
:1053B00000000000000000000180018001800180E9
:1053C00001807FFE018001800180018000000000DB
:1053D00000000000000000000000000000000000CD
:1053E00000000000000000000000000000000000BD
:1053F000000000000000000003C003C001C001C0A5
:1054000003801F00000000000000000000000000FA
:10541000000000000000000000000000000000008C
:1054200000000FF00000000000000000000000007D
:10543000000000000000000000000000000000006C
:10544000000000000000000000000000000000005C
:10545000000000000000000003C003C003C0000003
:10546000000000000000000000000000000000003C
:105470000000001800380030006000E000C001C0EB
:1054800001800300030006000E000C001C00180041
:1054900030000000000000000000000000000000DC
:1054A000000001800FF01C38381C301C707E70EE3C
:1054B000738E7E0E7C0C300C381C1E780FE00000C2
:1054C00000000000000000000000000000000000DC
:1054D0000000000007C01FC039C001C001C001C0EA
:1054E00001C001C001C001C001C03FFC3FFC000081
:1054F00000000000000000000000000000000000AC
:10550000000003801FF018380038001800380038F9
:10551000007001E0038007001C003FFC3FFC00001E
:10552000000000000000000000000000000000007B
:10553000000007801FF0003800380038003007E016
:1055400007F00038001C001C001820F83FE00000A5
:10555000000000000000000000000000000000004B
:105560000000000000F001B0033007300E301C30A6
:10557000383070307FFE7FFE003000300030000099
:10558000000000000000000000000000000000001B
:10559000000000001FF818001800180018001FE095
:1055A00000F8001C001C001C003800F01FC00000A8
:1055B00000000000000000000000000000000000EB
:1055C0000000000003F80F001C001800300037F83E
:1055D0003C3C300C300C380C381C1E380FF00000EE
:1055E00000000000000000000000000000000000BB
:1055F000000000003FFC001C001800380070006034
:1056000000E001C001800380070006000E000000DA
:10561000000000000000000000000000000000008A
:10562000000003C01FF8381C381C381C1C380FF051
:1056300007F01C78381C300C381C3C380FF0000088
:10564000000000000000000000000000000000005A
:10565000000003801FF03838301C701C700C380CB0
:105660001FFC0FCC001C001800701FE01F80000002
:10567000000000000000000000000000000000002A
:105680000000000000000000000003C003C0018013
:10569000000000000000000003C003C003C00000C1
:1056A00000000000000000000000000000000000FA
:1056B0000000000000000000000003C003C00180E3
:1056C000000000000000000003C003C001C001C0D2
:1056D00003800F0000000000000000000000000038
:1056E0000000000000000000003800F001C00700CA
:1056F0001E0038000E00078001C00070003000005E
:105700000000000000000000000000000000000099
:1057100000000000000000000000000000003FFC4E
:10572000000000003FFC3FFC000000000000000003
:105730000000000000000000000000000000000069
:1057400000000000000000001C000F00038001E0CA
:105750000078001C007001E003800E000C000000C7
:105760000000000000000000000000000000000039
:1057700000000FC000F0003800380038003803F097
:105780000380030003000000000007800780000082
:105790000000000000000000000000000000000009
:1057A00000E007F80C0C18063006700363F366334C
:1057B000C673CC63CC62CC66CCE6C7FCE00060006C
:1057C000700038101FF00000000000000000000012
:1057D0000000000003C007E006E00E700E700C3001
:1057E0001C3818183FFC3FFC700E600EE0070000EC
:1057F00000000000000000000000000000000000A9
:10580000000000003FF03838381C381C38383FF0B2
:105810003FF8381C380C380C381C3FF83FE00000CB
:105820000000000000000000000000000000000078
:10583000000000E007FC1E04380038003000700053
:1058400070007000300038003C001F9C07FC000016
:105850000000000000000000000000000000000048
:10586000000000003FF03078301C300C300E300E5D
:10587000300E300E300E301C30383FF03FC000008C
:105880000000000000000000000000000000000018
:10589000000000001FF818001800180018001FF87A
:1058A0001FF818001800180018001FF81FF8000053
:1058B00000000000000000000000000000000000E8
:1058C000000000001FF818001800180018001FF84A
:1058D0001FF8180018001800180018001800000021
:1058E00000000000000000000000000000000000B8
:1058F000000000F007FC1E0438003000700070004B
:1059000070FC700C700C300C380C1F1C07FC000075
:105910000000000000000000000000000000000087
:1059200000000000300C300C300C300C300C3FFC10
:105930003FFC300C300C300C300C300C300C0000C4
:105940000000000000000000000000000000000057
:10595000000000003FFC0180018001800180018087
:10596000018001800180018001803FFC3FFC00003C
:105970000000000000000000000000000000000027
:10598000000000001FF00030003000300030003018
:10599000003000300030003000701DE01FC00000FB
:1059A00000000000000000000000000000000000F7
:1059B00000000000381C387038E039C03B803F00E0
:1059C0003F003B8039C038E038703838381C000060
:1059D00000000000000000000000000000000000C7
:1059E000000000001C001C001C001C001C001C000F
:1059F0001C001C001C001C001C001FFC1FFC0000E5
:105A00000000000000000000000000000000000096
:105A100000000000381C7C3C6C3E6E6E666E66CEEC
:105A200063C66386618660066006600660060000E5
:105A30000000000000000000000000000000000066
:105A4000000000003C0C3C0C3E0C360C330C338C3C
:105A5000318C31CC30EC306C307C303C301C000070
:105A60000000000000000000000000000000000036
:105A7000000001C00FF81C3C381C700E700E600650
:105A80006006700E700E700C381C1E780FE000005F
:105A90000000000000000000000000000000000006
:105AA000000000003FF0383C381C380C380C381C23
:105AB00038783FE0380038003800380038000000FF
:105AC00000000000000000000000000000000000D6
:105AD000000001C00FF81C3C381C700E700E6006F0
